{
  "abi": [
    {
      "inputs": [
        {
          "internalType": "contract IERC721",
          "name": "_nftCollection",
          "type": "address"
        },
        {
          "internalType": "contract IERC20",
          "name": "_rewardsToken",
          "type": "address"
        }
      ],
      "stateMutability": "nonpayable",
      "type": "constructor"
    },
    {
      "inputs": [
        {
          "internalType": "address",
          "name": "_staker",
          "type": "address"
        }
      ],
      "name": "availableRewards",
      "outputs": [
        {
          "internalType": "uint256",
          "name": "",
          "type": "uint256"
        }
      ],
      "stateMutability": "view",
      "type": "function"
    },
    {
      "inputs": [],
      "name": "claimRewards",
      "outputs": [],
      "stateMutability": "nonpayable",
      "type": "function"
    },
    {
      "inputs": [
        {
          "internalType": "address",
          "name": "_user",
          "type": "address"
        }
      ],
      "name": "getStakedTokens",
      "outputs": [
        {
          "components": [
            {
              "internalType": "address",
              "name": "staker",
              "type": "address"
            },
            {
              "internalType": "uint256",
              "name": "tokenId",
              "type": "uint256"
            }
          ],
          "internalType": "struct ERC721Staking_RED.StakedToken[]",
          "name": "",
          "type": "tuple[]"
        }
      ],
      "stateMutability": "view",
      "type": "function"
    },
    {
      "inputs": [],
      "name": "nftCollection",
      "outputs": [
        {
          "internalType": "contract IERC721",
          "name": "",
          "type": "address"
        }
      ],
      "stateMutability": "view",
      "type": "function"
    },
    {
      "inputs": [],
      "name": "rewardsToken",
      "outputs": [
        {
          "internalType": "contract IERC20",
          "name": "",
          "type": "address"
        }
      ],
      "stateMutability": "view",
      "type": "function"
    },
    {
      "inputs": [
        {
          "internalType": "uint256",
          "name": "_tokenId",
          "type": "uint256"
        }
      ],
      "name": "stake",
      "outputs": [],
      "stateMutability": "nonpayable",
      "type": "function"
    },
    {
      "inputs": [
        {
          "internalType": "uint256",
          "name": "",
          "type": "uint256"
        }
      ],
      "name": "stakerAddress",
      "outputs": [
        {
          "internalType": "address",
          "name": "",
          "type": "address"
        }
      ],
      "stateMutability": "view",
      "type": "function"
    },
    {
      "inputs": [
        {
          "internalType": "address",
          "name": "",
          "type": "address"
        }
      ],
      "name": "stakers",
      "outputs": [
        {
          "internalType": "uint256",
          "name": "amountStaked",
          "type": "uint256"
        },
        {
          "internalType": "uint256",
          "name": "timeOfLastUpdate",
          "type": "uint256"
        },
        {
          "internalType": "uint256",
          "name": "unclaimedRewards",
          "type": "uint256"
        }
      ],
      "stateMutability": "view",
      "type": "function"
    },
    {
      "inputs": [
        {
          "internalType": "uint256",
          "name": "_tokenId",
          "type": "uint256"
        }
      ],
      "name": "withdraw",
      "outputs": [],
      "stateMutability": "nonpayable",
      "type": "function"
    }
  ],
  "devdoc": {
    "kind": "dev",
    "methods": {},
    "version": 1
  },
  "evm": {
    "assembly": "    /* \"StakingContract4.sol\":311:7560  contract ERC721Staking_RED is ReentrancyGuard {... */\n  mstore(0x40, 0xc0)\n    /* \"StakingContract4.sol\":1433:1452  1000000000000000000 */\n  0x0de0b6b3a7640000\n    /* \"StakingContract4.sol\":1400:1452  uint256 private rewardsPerHour = 1000000000000000000 */\n  0x01\n  sstore\n    /* \"StakingContract4.sol\":616:762  constructor(IERC721 _nftCollection, IERC20 _rewardsToken) {... */\n  callvalue\n  dup1\n  iszero\n  tag_1\n  jumpi\n  0x00\n  dup1\n  revert\ntag_1:\n  pop\n  mload(0x40)\n  sub(codesize, bytecodeSize)\n  dup1\n  bytecodeSize\n  dup4\n  codecopy\n  dup2\n  add\n  0x40\n  dup2\n  swap1\n  mstore\n  tag_2\n  swap2\n  tag_3\n  jump\t// in\ntag_2:\n    /* \"@openzeppelin/contracts/security/ReentrancyGuard.sol\":1716:1717   */\n  0x01\n    /* \"@openzeppelin/contracts/security/ReentrancyGuard.sol\":1821:1828   */\n  0x00\n    /* \"@openzeppelin/contracts/security/ReentrancyGuard.sol\":1821:1843   */\n  sstore\n  sub(shl(0xa0, 0x01), 0x01)\n    /* \"StakingContract4.sol\":685:715  nftCollection = _nftCollection */\n  swap2\n  dup3\n  and\n  0xa0\n  mstore\n    /* \"StakingContract4.sol\":726:754  rewardsToken = _rewardsToken */\n  and\n  0x80\n  mstore\n    /* \"StakingContract4.sol\":311:7560  contract ERC721Staking_RED is ReentrancyGuard {... */\n  jump(tag_10)\n    /* \"#utility.yul\":14:154   */\ntag_9:\n  sub(shl(0xa0, 0x01), 0x01)\n    /* \"#utility.yul\":98:129   */\n  dup2\n  and\n    /* \"#utility.yul\":88:130   */\n  dup2\n  eq\n    /* \"#utility.yul\":78:148   */\n  tag_12\n  jumpi\n    /* \"#utility.yul\":144:145   */\n  0x00\n    /* \"#utility.yul\":141:142   */\n  dup1\n    /* \"#utility.yul\":134:146   */\n  revert\n    /* \"#utility.yul\":78:148   */\ntag_12:\n    /* \"#utility.yul\":14:154   */\n  pop\n  jump\t// out\n    /* \"#utility.yul\":159:593   */\ntag_3:\n    /* \"#utility.yul\":269:275   */\n  0x00\n    /* \"#utility.yul\":277:283   */\n  dup1\n    /* \"#utility.yul\":330:332   */\n  0x40\n    /* \"#utility.yul\":318:327   */\n  dup4\n    /* \"#utility.yul\":309:316   */\n  dup6\n    /* \"#utility.yul\":305:328   */\n  sub\n    /* \"#utility.yul\":301:333   */\n  slt\n    /* \"#utility.yul\":298:350   */\n  iszero\n  tag_14\n  jumpi\n    /* \"#utility.yul\":346:347   */\n  0x00\n    /* \"#utility.yul\":343:344   */\n  dup1\n    /* \"#utility.yul\":336:348   */\n  revert\n    /* \"#utility.yul\":298:350   */\ntag_14:\n    /* \"#utility.yul\":378:387   */\n  dup3\n    /* \"#utility.yul\":372:388   */\n  mload\n    /* \"#utility.yul\":397:437   */\n  tag_15\n    /* \"#utility.yul\":431:436   */\n  dup2\n    /* \"#utility.yul\":397:437   */\n  tag_9\n  jump\t// in\ntag_15:\n    /* \"#utility.yul\":506:508   */\n  0x20\n    /* \"#utility.yul\":491:509   */\n  dup5\n  add\n    /* \"#utility.yul\":485:510   */\n  mload\n    /* \"#utility.yul\":456:461   */\n  swap1\n  swap3\n  pop\n    /* \"#utility.yul\":519:561   */\n  tag_16\n    /* \"#utility.yul\":485:510   */\n  dup2\n    /* \"#utility.yul\":519:561   */\n  tag_9\n  jump\t// in\ntag_16:\n    /* \"#utility.yul\":580:587   */\n  dup1\n    /* \"#utility.yul\":570:587   */\n  swap2\n  pop\n  pop\n    /* \"#utility.yul\":159:593   */\n  swap3\n  pop\n  swap3\n  swap1\n  pop\n  jump\t// out\ntag_10:\n    /* \"StakingContract4.sol\":311:7560  contract ERC721Staking_RED is ReentrancyGuard {... */\n  mload(0x80)\n  mload(0xa0)\n  codecopy(0x00, dataOffset(sub_0), dataSize(sub_0))\n  0x00\n  assignImmutable(\"0xc49c391accf36249bb4a395ffc268a3311395cbcbdac51e050658d427eba8327\")\n  0x00\n  assignImmutable(\"0x489603a19aaa398638b499cf6d07e7632ded4210a8c094120f2860cef1e4eaf7\")\n  return(0x00, dataSize(sub_0))\nstop\n\nsub_0: assembly {\n        /* \"StakingContract4.sol\":311:7560  contract ERC721Staking_RED is ReentrancyGuard {... */\n      mstore(0x40, 0x80)\n      callvalue\n      dup1\n      iszero\n      tag_1\n      jumpi\n      0x00\n      dup1\n      revert\n    tag_1:\n      pop\n      jumpi(tag_2, lt(calldatasize, 0x04))\n      shr(0xe0, calldataload(0x00))\n      dup1\n      0x9168ae72\n      gt\n      tag_12\n      jumpi\n      dup1\n      0xa694fc3a\n      gt\n      tag_13\n      jumpi\n      dup1\n      0xa694fc3a\n      eq\n      tag_9\n      jumpi\n      dup1\n      0xd1af0c7d\n      eq\n      tag_10\n      jumpi\n      dup1\n      0xf854a27f\n      eq\n      tag_11\n      jumpi\n      0x00\n      dup1\n      revert\n    tag_13:\n      dup1\n      0x9168ae72\n      eq\n      tag_7\n      jumpi\n      dup1\n      0x94067045\n      eq\n      tag_8\n      jumpi\n      0x00\n      dup1\n      revert\n    tag_12:\n      dup1\n      0x2e1a7d4d\n      eq\n      tag_3\n      jumpi\n      dup1\n      0x372500ab\n      eq\n      tag_4\n      jumpi\n      dup1\n      0x63c28db1\n      eq\n      tag_5\n      jumpi\n      dup1\n      0x6588103b\n      eq\n      tag_6\n      jumpi\n    tag_2:\n      0x00\n      dup1\n      revert\n        /* \"StakingContract4.sol\":3500:5290  function withdraw(uint256 _tokenId) external nonReentrant {... */\n    tag_3:\n      tag_14\n      tag_15\n      calldatasize\n      0x04\n      tag_16\n      jump\t// in\n    tag_15:\n      tag_17\n      jump\t// in\n    tag_14:\n      stop\n        /* \"StakingContract4.sol\":5473:5859  function claimRewards() external {... */\n    tag_4:\n      tag_14\n      tag_19\n      jump\t// in\n        /* \"StakingContract4.sol\":6136:7009  function getStakedTokens(address _user) public view returns (StakedToken[] memory) {... */\n    tag_5:\n      tag_20\n      tag_21\n      calldatasize\n      0x04\n      tag_22\n      jump\t// in\n    tag_21:\n      tag_23\n      jump\t// in\n    tag_20:\n      mload(0x40)\n      tag_24\n      swap2\n      swap1\n      tag_25\n      jump\t// in\n    tag_24:\n      mload(0x40)\n      dup1\n      swap2\n      sub\n      swap1\n      return\n        /* \"StakingContract4.sol\":482:520  IERC721 public immutable nftCollection */\n    tag_6:\n      tag_26\n      immutable(\"0xc49c391accf36249bb4a395ffc268a3311395cbcbdac51e050658d427eba8327\")\n      dup2\n      jump\n    tag_26:\n      mload(0x40)\n      sub(shl(0xa0, 0x01), 0x01)\n        /* \"#utility.yul\":1640:1695   */\n      swap1\n      swap2\n      and\n        /* \"#utility.yul\":1622:1696   */\n      dup2\n      mstore\n        /* \"#utility.yul\":1610:1612   */\n      0x20\n        /* \"#utility.yul\":1595:1613   */\n      add\n        /* \"StakingContract4.sol\":482:520  IERC721 public immutable nftCollection */\n      tag_24\n        /* \"#utility.yul\":1460:1702   */\n      jump\n        /* \"StakingContract4.sol\":1508:1549  mapping(address => Staker) public stakers */\n    tag_7:\n      tag_30\n      tag_31\n      calldatasize\n      0x04\n      tag_22\n      jump\t// in\n    tag_31:\n      0x02\n      0x20\n      dup2\n      swap1\n      mstore\n      0x00\n      swap2\n      dup3\n      mstore\n      0x40\n      swap1\n      swap2\n      keccak256\n      dup1\n      sload\n      swap2\n      dup2\n      add\n      sload\n      0x03\n      swap1\n      swap2\n      add\n      sload\n      dup4\n      jump\n    tag_30:\n      0x40\n      dup1\n      mload\n        /* \"#utility.yul\":1909:1934   */\n      swap4\n      dup5\n      mstore\n        /* \"#utility.yul\":1965:1967   */\n      0x20\n        /* \"#utility.yul\":1950:1968   */\n      dup5\n      add\n        /* \"#utility.yul\":1943:1977   */\n      swap3\n      swap1\n      swap3\n      mstore\n        /* \"#utility.yul\":1993:2011   */\n      swap1\n      dup3\n      add\n        /* \"#utility.yul\":1986:2020   */\n      mstore\n        /* \"#utility.yul\":1897:1899   */\n      0x60\n        /* \"#utility.yul\":1882:1900   */\n      add\n        /* \"StakingContract4.sol\":1508:1549  mapping(address => Staker) public stakers */\n      tag_24\n        /* \"#utility.yul\":1707:2026   */\n      jump\n        /* \"StakingContract4.sol\":1671:1719  mapping(uint256 => address) public stakerAddress */\n    tag_8:\n      tag_26\n      tag_36\n      calldatasize\n      0x04\n      tag_16\n      jump\t// in\n    tag_36:\n      mstore(0x20, 0x03)\n      0x00\n      swap1\n      dup2\n      mstore\n      0x40\n      swap1\n      keccak256\n      sload\n      sub(shl(0xa0, 0x01), 0x01)\n      and\n      dup2\n      jump\n        /* \"StakingContract4.sol\":1993:3247  function stake(uint256 _tokenId) external nonReentrant {... */\n    tag_9:\n      tag_14\n      tag_41\n      calldatasize\n      0x04\n      tag_16\n      jump\t// in\n    tag_41:\n      tag_42\n      jump\t// in\n        /* \"StakingContract4.sol\":439:475  IERC20 public immutable rewardsToken */\n    tag_10:\n      tag_26\n      immutable(\"0x489603a19aaa398638b499cf6d07e7632ded4210a8c094120f2860cef1e4eaf7\")\n      dup2\n      jump\n        /* \"StakingContract4.sol\":5919:6128  function availableRewards(address _staker) public view returns (uint256) {... */\n    tag_11:\n      tag_47\n      tag_48\n      calldatasize\n      0x04\n      tag_22\n      jump\t// in\n    tag_48:\n      tag_49\n      jump\t// in\n    tag_47:\n      mload(0x40)\n        /* \"#utility.yul\":2654:2679   */\n      swap1\n      dup2\n      mstore\n        /* \"#utility.yul\":2642:2644   */\n      0x20\n        /* \"#utility.yul\":2627:2645   */\n      add\n        /* \"StakingContract4.sol\":5919:6128  function availableRewards(address _staker) public view returns (uint256) {... */\n      tag_24\n        /* \"#utility.yul\":2508:2685   */\n      jump\n        /* \"StakingContract4.sol\":3500:5290  function withdraw(uint256 _tokenId) external nonReentrant {... */\n    tag_17:\n        /* \"@openzeppelin/contracts/security/ReentrancyGuard.sol\":2261:2282   */\n      tag_53\n        /* \"@openzeppelin/contracts/security/ReentrancyGuard.sol\":2261:2280   */\n      tag_54\n        /* \"@openzeppelin/contracts/security/ReentrancyGuard.sol\":2261:2282   */\n      jump\t// in\n    tag_53:\n        /* \"StakingContract4.sol\":3679:3689  msg.sender */\n      caller\n        /* \"StakingContract4.sol\":3706:3707  0 */\n      0x00\n        /* \"StakingContract4.sol\":3671:3690  stakers[msg.sender] */\n      swap1\n      dup2\n      mstore\n        /* \"StakingContract4.sol\":3671:3678  stakers */\n      0x02\n        /* \"StakingContract4.sol\":3671:3690  stakers[msg.sender] */\n      0x20\n      mstore\n      0x40\n      swap1\n      keccak256\n        /* \"StakingContract4.sol\":3671:3703  stakers[msg.sender].amountStaked */\n      sload\n        /* \"StakingContract4.sol\":3649:3760  require(... */\n      tag_56\n      jumpi\n      mload(0x40)\n      shl(0xe5, 0x461bcd)\n      dup2\n      mstore\n        /* \"#utility.yul\":2892:2894   */\n      0x20\n        /* \"StakingContract4.sol\":3649:3760  require(... */\n      0x04\n      dup3\n      add\n        /* \"#utility.yul\":2874:2895   */\n      mstore\n        /* \"#utility.yul\":2931:2933   */\n      0x19\n        /* \"#utility.yul\":2911:2929   */\n      0x24\n      dup3\n      add\n        /* \"#utility.yul\":2904:2934   */\n      mstore\n        /* \"#utility.yul\":2970:2997   */\n      0x596f752068617665206e6f20746f6b656e73207374616b656400000000000000\n        /* \"#utility.yul\":2950:2968   */\n      0x44\n      dup3\n      add\n        /* \"#utility.yul\":2943:2998   */\n      mstore\n        /* \"#utility.yul\":3015:3033   */\n      0x64\n      add\n        /* \"StakingContract4.sol\":3649:3760  require(... */\n    tag_57:\n      mload(0x40)\n      dup1\n      swap2\n      sub\n      swap1\n      revert\n    tag_56:\n        /* \"StakingContract4.sol\":3855:3878  stakerAddress[_tokenId] */\n      0x00\n      dup2\n      dup2\n      mstore\n        /* \"StakingContract4.sol\":3855:3868  stakerAddress */\n      0x03\n        /* \"StakingContract4.sol\":3855:3878  stakerAddress[_tokenId] */\n      0x20\n      mstore\n      0x40\n      swap1\n      keccak256\n      sload\n      sub(shl(0xa0, 0x01), 0x01)\n      and\n        /* \"StakingContract4.sol\":3882:3892  msg.sender */\n      caller\n        /* \"StakingContract4.sol\":3855:3892  stakerAddress[_tokenId] == msg.sender */\n      eq\n        /* \"StakingContract4.sol\":3847:3922  require(stakerAddress[_tokenId] == msg.sender, \"You don't own this token!\") */\n      tag_59\n      jumpi\n      mload(0x40)\n      shl(0xe5, 0x461bcd)\n      dup2\n      mstore\n        /* \"#utility.yul\":3246:3248   */\n      0x20\n        /* \"StakingContract4.sol\":3847:3922  require(stakerAddress[_tokenId] == msg.sender, \"You don't own this token!\") */\n      0x04\n      dup3\n      add\n        /* \"#utility.yul\":3228:3249   */\n      mstore\n        /* \"#utility.yul\":3285:3287   */\n      0x19\n        /* \"#utility.yul\":3265:3283   */\n      0x24\n      dup3\n      add\n        /* \"#utility.yul\":3258:3288   */\n      mstore\n        /* \"#utility.yul\":3324:3351   */\n      0x596f7520646f6e2774206f776e207468697320746f6b656e2100000000000000\n        /* \"#utility.yul\":3304:3322   */\n      0x44\n      dup3\n      add\n        /* \"#utility.yul\":3297:3352   */\n      mstore\n        /* \"#utility.yul\":3369:3387   */\n      0x64\n      add\n        /* \"StakingContract4.sol\":3847:3922  require(stakerAddress[_tokenId] == msg.sender, \"You don't own this token!\") */\n      tag_57\n        /* \"#utility.yul\":3044:3393   */\n      jump\n        /* \"StakingContract4.sol\":3847:3922  require(stakerAddress[_tokenId] == msg.sender, \"You don't own this token!\") */\n    tag_59:\n        /* \"StakingContract4.sol\":4034:4049  uint256 rewards */\n      0x00\n        /* \"StakingContract4.sol\":4052:4080  calculateRewards(msg.sender) */\n      tag_62\n        /* \"StakingContract4.sol\":4069:4079  msg.sender */\n      caller\n        /* \"StakingContract4.sol\":4052:4068  calculateRewards */\n      tag_63\n        /* \"StakingContract4.sol\":4052:4080  calculateRewards(msg.sender) */\n      jump\t// in\n    tag_62:\n        /* \"StakingContract4.sol\":4099:4109  msg.sender */\n      caller\n        /* \"StakingContract4.sol\":4091:4110  stakers[msg.sender] */\n      0x00\n      swap1\n      dup2\n      mstore\n        /* \"StakingContract4.sol\":4091:4098  stakers */\n      0x02\n        /* \"StakingContract4.sol\":4091:4110  stakers[msg.sender] */\n      0x20\n      mstore\n      0x40\n      dup2\n      keccak256\n        /* \"StakingContract4.sol\":4091:4127  stakers[msg.sender].unclaimedRewards */\n      0x03\n      add\n        /* \"StakingContract4.sol\":4091:4138  stakers[msg.sender].unclaimedRewards += rewards */\n      dup1\n      sload\n        /* \"StakingContract4.sol\":4034:4080  uint256 rewards = calculateRewards(msg.sender) */\n      swap3\n      swap4\n      pop\n      dup4\n      swap3\n        /* \"StakingContract4.sol\":4091:4127  stakers[msg.sender].unclaimedRewards */\n      swap1\n      swap2\n        /* \"StakingContract4.sol\":4091:4110  stakers[msg.sender] */\n      swap1\n        /* \"StakingContract4.sol\":4091:4138  stakers[msg.sender].unclaimedRewards += rewards */\n      tag_64\n      swap1\n        /* \"StakingContract4.sol\":4034:4080  uint256 rewards = calculateRewards(msg.sender) */\n      dup5\n      swap1\n        /* \"StakingContract4.sol\":4091:4138  stakers[msg.sender].unclaimedRewards += rewards */\n      tag_65\n      jump\t// in\n    tag_64:\n      swap1\n      swap2\n      sstore\n      pop\n        /* \"StakingContract4.sol\":4221:4234  uint256 index */\n      0x00\n      swap1\n      pop\n      dup1\n        /* \"StakingContract4.sol\":4249:4602  for (uint256 i = 0; i < stakers[msg.sender].stakedTokens.length; i++) {... */\n    tag_66:\n        /* \"StakingContract4.sol\":4281:4291  msg.sender */\n      caller\n        /* \"StakingContract4.sol\":4273:4292  stakers[msg.sender] */\n      0x00\n      swap1\n      dup2\n      mstore\n        /* \"StakingContract4.sol\":4273:4280  stakers */\n      0x02\n        /* \"StakingContract4.sol\":4273:4292  stakers[msg.sender] */\n      0x20\n      mstore\n      0x40\n      swap1\n      keccak256\n        /* \"StakingContract4.sol\":4273:4305  stakers[msg.sender].stakedTokens */\n      0x01\n      add\n        /* \"StakingContract4.sol\":4273:4312  stakers[msg.sender].stakedTokens.length */\n      sload\n        /* \"StakingContract4.sol\":4269:4312  i < stakers[msg.sender].stakedTokens.length */\n      dup2\n      lt\n        /* \"StakingContract4.sol\":4249:4602  for (uint256 i = 0; i < stakers[msg.sender].stakedTokens.length; i++) {... */\n      iszero\n      tag_67\n      jumpi\n        /* \"StakingContract4.sol\":4364:4374  msg.sender */\n      caller\n        /* \"StakingContract4.sol\":4356:4375  stakers[msg.sender] */\n      0x00\n      swap1\n      dup2\n      mstore\n        /* \"StakingContract4.sol\":4356:4363  stakers */\n      0x02\n        /* \"StakingContract4.sol\":4356:4375  stakers[msg.sender] */\n      0x20\n      mstore\n      0x40\n      swap1\n      keccak256\n        /* \"StakingContract4.sol\":4356:4388  stakers[msg.sender].stakedTokens */\n      0x01\n      add\n        /* \"StakingContract4.sol\":4356:4391  stakers[msg.sender].stakedTokens[i] */\n      dup1\n      sload\n        /* \"StakingContract4.sol\":4403:4411  _tokenId */\n      dup6\n      swap2\n        /* \"StakingContract4.sol\":4356:4388  stakers[msg.sender].stakedTokens */\n      swap1\n        /* \"StakingContract4.sol\":4389:4390  i */\n      dup4\n      swap1\n        /* \"StakingContract4.sol\":4356:4391  stakers[msg.sender].stakedTokens[i] */\n      dup2\n      lt\n      tag_70\n      jumpi\n      tag_70\n      tag_71\n      jump\t// in\n    tag_70:\n      swap1\n      0x00\n      mstore\n      keccak256(0x00, 0x20)\n      swap1\n      0x02\n      mul\n      add\n        /* \"StakingContract4.sol\":4356:4399  stakers[msg.sender].stakedTokens[i].tokenId */\n      0x01\n      add\n      sload\n        /* \"StakingContract4.sol\":4356:4411  stakers[msg.sender].stakedTokens[i].tokenId == _tokenId */\n      eq\n        /* \"StakingContract4.sol\":4356:4507  stakers[msg.sender].stakedTokens[i].tokenId == _tokenId ... */\n      dup1\n      iszero\n      tag_73\n      jumpi\n      pop\n        /* \"StakingContract4.sol\":4459:4469  msg.sender */\n      caller\n        /* \"StakingContract4.sol\":4505:4506  0 */\n      0x00\n        /* \"StakingContract4.sol\":4451:4470  stakers[msg.sender] */\n      swap1\n      dup2\n      mstore\n        /* \"StakingContract4.sol\":4451:4458  stakers */\n      0x02\n        /* \"StakingContract4.sol\":4451:4470  stakers[msg.sender] */\n      0x20\n      mstore\n      0x40\n      dup2\n      keccak256\n        /* \"StakingContract4.sol\":4451:4483  stakers[msg.sender].stakedTokens */\n      0x01\n      add\n        /* \"StakingContract4.sol\":4451:4486  stakers[msg.sender].stakedTokens[i] */\n      dup1\n      sload\n        /* \"StakingContract4.sol\":4484:4485  i */\n      dup4\n      swap1\n        /* \"StakingContract4.sol\":4451:4486  stakers[msg.sender].stakedTokens[i] */\n      dup2\n      lt\n      tag_75\n      jumpi\n      tag_75\n      tag_71\n      jump\t// in\n    tag_75:\n      0x00\n      swap2\n      dup3\n      mstore\n      0x20\n      swap1\n      swap2\n      keccak256\n      0x02\n      swap1\n      swap2\n      mul\n      add\n        /* \"StakingContract4.sol\":4451:4493  stakers[msg.sender].stakedTokens[i].staker */\n      sload\n      sub(shl(0xa0, 0x01), 0x01)\n      and\n        /* \"StakingContract4.sol\":4451:4507  stakers[msg.sender].stakedTokens[i].staker != address(0) */\n      eq\n      iszero\n        /* \"StakingContract4.sol\":4356:4507  stakers[msg.sender].stakedTokens[i].tokenId == _tokenId ... */\n    tag_73:\n        /* \"StakingContract4.sol\":4334:4591  if (... */\n      iszero\n      tag_77\n      jumpi\n        /* \"StakingContract4.sol\":4550:4551  i */\n      dup1\n        /* \"StakingContract4.sol\":4542:4551  index = i */\n      swap2\n      pop\n        /* \"StakingContract4.sol\":4570:4575  break */\n      jump(tag_67)\n        /* \"StakingContract4.sol\":4334:4591  if (... */\n    tag_77:\n        /* \"StakingContract4.sol\":4314:4317  i++ */\n      dup1\n      tag_78\n      dup2\n      tag_79\n      jump\t// in\n    tag_78:\n      swap2\n      pop\n      pop\n        /* \"StakingContract4.sol\":4249:4602  for (uint256 i = 0; i < stakers[msg.sender].stakedTokens.length; i++) {... */\n      jump(tag_66)\n    tag_67:\n      pop\n        /* \"StakingContract4.sol\":4706:4716  msg.sender */\n      caller\n        /* \"StakingContract4.sol\":4755:4756  0 */\n      0x00\n        /* \"StakingContract4.sol\":4698:4717  stakers[msg.sender] */\n      swap1\n      dup2\n      mstore\n        /* \"StakingContract4.sol\":4698:4705  stakers */\n      0x02\n        /* \"StakingContract4.sol\":4698:4717  stakers[msg.sender] */\n      0x20\n      mstore\n      0x40\n      dup2\n      keccak256\n        /* \"StakingContract4.sol\":4698:4730  stakers[msg.sender].stakedTokens */\n      0x01\n      add\n        /* \"StakingContract4.sol\":4698:4737  stakers[msg.sender].stakedTokens[index] */\n      dup1\n      sload\n        /* \"StakingContract4.sol\":4731:4736  index */\n      dup4\n      swap1\n        /* \"StakingContract4.sol\":4698:4737  stakers[msg.sender].stakedTokens[index] */\n      dup2\n      lt\n      tag_81\n      jumpi\n      tag_81\n      tag_71\n      jump\t// in\n    tag_81:\n      0x00\n      swap2\n      dup3\n      mstore\n      0x20\n      dup1\n      dup4\n      keccak256\n      0x02\n      swap3\n      dup4\n      mul\n      add\n        /* \"StakingContract4.sol\":4698:4757  stakers[msg.sender].stakedTokens[index].staker = address(0) */\n      dup1\n      sload\n      not(sub(shl(0xa0, 0x01), 0x01))\n      and\n      sub(shl(0xa0, 0x01), 0x01)\n      swap6\n      swap1\n      swap6\n      and\n      swap5\n      swap1\n      swap5\n      or\n      swap1\n      swap4\n      sstore\n        /* \"StakingContract4.sol\":4834:4844  msg.sender */\n      caller\n        /* \"StakingContract4.sol\":4826:4845  stakers[msg.sender] */\n      dup3\n      mstore\n      swap1\n      swap2\n      mstore\n      0x40\n      dup2\n      keccak256\n        /* \"StakingContract4.sol\":4826:4860  stakers[msg.sender].amountStaked-- */\n      dup1\n      sload\n      swap2\n      tag_83\n      dup4\n      tag_84\n      jump\t// in\n    tag_83:\n      swap1\n      swap2\n      sstore\n      pop\n      pop\n        /* \"StakingContract4.sol\":5021:5022  0 */\n      0x00\n        /* \"StakingContract4.sol\":4987:5010  stakerAddress[_tokenId] */\n      dup4\n      dup2\n      mstore\n        /* \"StakingContract4.sol\":4987:5000  stakerAddress */\n      0x03\n        /* \"StakingContract4.sol\":4987:5010  stakerAddress[_tokenId] */\n      0x20\n      mstore\n      0x40\n      swap1\n      dup2\n      swap1\n      keccak256\n        /* \"StakingContract4.sol\":4987:5023  stakerAddress[_tokenId] = address(0) */\n      dup1\n      sload\n      not(sub(shl(0xa0, 0x01), 0x01))\n      and\n      swap1\n      sstore\n        /* \"StakingContract4.sol\":5090:5153  nftCollection.transferFrom(address(this), msg.sender, _tokenId) */\n      mload\n      shl(0xe0, 0x23b872dd)\n      dup2\n      mstore\n        /* \"StakingContract4.sol\":5125:5129  this */\n      address\n        /* \"StakingContract4.sol\":5090:5153  nftCollection.transferFrom(address(this), msg.sender, _tokenId) */\n      0x04\n      dup3\n      add\n        /* \"#utility.yul\":4339:4373   */\n      mstore\n        /* \"StakingContract4.sol\":5132:5142  msg.sender */\n      caller\n        /* \"#utility.yul\":4389:4407   */\n      0x24\n      dup3\n      add\n        /* \"#utility.yul\":4382:4425   */\n      mstore\n        /* \"#utility.yul\":4441:4459   */\n      0x44\n      dup2\n      add\n        /* \"#utility.yul\":4434:4468   */\n      dup5\n      swap1\n      mstore\n      sub(shl(0xa0, 0x01), 0x01)\n        /* \"StakingContract4.sol\":5090:5103  nftCollection */\n      immutable(\"0xc49c391accf36249bb4a395ffc268a3311395cbcbdac51e050658d427eba8327\")\n        /* \"StakingContract4.sol\":5090:5116  nftCollection.transferFrom */\n      and\n      swap1\n      0x23b872dd\n      swap1\n        /* \"#utility.yul\":4251:4269   */\n      0x64\n      add\n        /* \"StakingContract4.sol\":5090:5153  nftCollection.transferFrom(address(this), msg.sender, _tokenId) */\n      0x00\n      mload(0x40)\n      dup1\n      dup4\n      sub\n      dup2\n      0x00\n      dup8\n      dup1\n      extcodesize\n      iszero\n      dup1\n      iszero\n      tag_87\n      jumpi\n      0x00\n      dup1\n      revert\n    tag_87:\n      pop\n      gas\n      call\n      iszero\n      dup1\n      iszero\n      tag_89\n      jumpi\n      returndatasize\n      0x00\n      dup1\n      returndatacopy\n      revert(0x00, returndatasize)\n    tag_89:\n      pop\n      pop\n        /* \"StakingContract4.sol\":5236:5246  msg.sender */\n      caller\n        /* \"StakingContract4.sol\":5228:5247  stakers[msg.sender] */\n      0x00\n      swap1\n      dup2\n      mstore\n        /* \"StakingContract4.sol\":5228:5235  stakers */\n      0x02\n        /* \"StakingContract4.sol\":5228:5247  stakers[msg.sender] */\n      0x20\n      dup2\n      swap1\n      mstore\n      0x40\n      swap1\n      swap2\n      keccak256\n        /* \"StakingContract4.sol\":5267:5282  block.timestamp */\n      timestamp\n        /* \"StakingContract4.sol\":5228:5264  stakers[msg.sender].timeOfLastUpdate */\n      swap2\n      add\n        /* \"StakingContract4.sol\":5228:5282  stakers[msg.sender].timeOfLastUpdate = block.timestamp */\n      sstore\n      pop\n        /* \"@openzeppelin/contracts/security/ReentrancyGuard.sol\":2303:2323   */\n      tag_90\n      swap3\n      pop\n        /* \"@openzeppelin/contracts/security/ReentrancyGuard.sol\":2303:2321   */\n      tag_91\n      swap2\n      pop\n      pop\n        /* \"@openzeppelin/contracts/security/ReentrancyGuard.sol\":2303:2323   */\n      jump\t// in\n    tag_90:\n        /* \"StakingContract4.sol\":3500:5290  function withdraw(uint256 _tokenId) external nonReentrant {... */\n      pop\n      jump\t// out\n        /* \"StakingContract4.sol\":5473:5859  function claimRewards() external {... */\n    tag_19:\n        /* \"StakingContract4.sol\":5587:5597  msg.sender */\n      caller\n        /* \"StakingContract4.sol\":5517:5532  uint256 rewards */\n      0x00\n        /* \"StakingContract4.sol\":5579:5598  stakers[msg.sender] */\n      dup2\n      dup2\n      mstore\n        /* \"StakingContract4.sol\":5579:5586  stakers */\n      0x02\n        /* \"StakingContract4.sol\":5579:5598  stakers[msg.sender] */\n      0x20\n      mstore\n      0x40\n      dup2\n      keccak256\n        /* \"StakingContract4.sol\":5579:5615  stakers[msg.sender].unclaimedRewards */\n      0x03\n      add\n      sload\n        /* \"StakingContract4.sol\":5517:5532  uint256 rewards */\n      swap1\n      swap2\n        /* \"StakingContract4.sol\":5535:5563  calculateRewards(msg.sender) */\n      tag_93\n      swap1\n        /* \"StakingContract4.sol\":5535:5551  calculateRewards */\n      tag_63\n        /* \"StakingContract4.sol\":5535:5563  calculateRewards(msg.sender) */\n      jump\t// in\n    tag_93:\n        /* \"StakingContract4.sol\":5535:5615  calculateRewards(msg.sender) +... */\n      tag_94\n      swap2\n      swap1\n      tag_65\n      jump\t// in\n    tag_94:\n        /* \"StakingContract4.sol\":5517:5615  uint256 rewards = calculateRewards(msg.sender) +... */\n      swap1\n      pop\n        /* \"StakingContract4.sol\":5644:5645  0 */\n      0x00\n        /* \"StakingContract4.sol\":5634:5641  rewards */\n      dup2\n        /* \"StakingContract4.sol\":5634:5645  rewards > 0 */\n      gt\n        /* \"StakingContract4.sol\":5626:5678  require(rewards > 0, \"You have no rewards to claim\") */\n      tag_95\n      jumpi\n      mload(0x40)\n      shl(0xe5, 0x461bcd)\n      dup2\n      mstore\n        /* \"#utility.yul\":4681:4683   */\n      0x20\n        /* \"StakingContract4.sol\":5626:5678  require(rewards > 0, \"You have no rewards to claim\") */\n      0x04\n      dup3\n      add\n        /* \"#utility.yul\":4663:4684   */\n      mstore\n        /* \"#utility.yul\":4720:4722   */\n      0x1c\n        /* \"#utility.yul\":4700:4718   */\n      0x24\n      dup3\n      add\n        /* \"#utility.yul\":4693:4723   */\n      mstore\n        /* \"#utility.yul\":4759:4789   */\n      0x596f752068617665206e6f207265776172647320746f20636c61696d00000000\n        /* \"#utility.yul\":4739:4757   */\n      0x44\n      dup3\n      add\n        /* \"#utility.yul\":4732:4790   */\n      mstore\n        /* \"#utility.yul\":4807:4825   */\n      0x64\n      add\n        /* \"StakingContract4.sol\":5626:5678  require(rewards > 0, \"You have no rewards to claim\") */\n      tag_57\n        /* \"#utility.yul\":4479:4831   */\n      jump\n        /* \"StakingContract4.sol\":5626:5678  require(rewards > 0, \"You have no rewards to claim\") */\n    tag_95:\n        /* \"StakingContract4.sol\":5697:5707  msg.sender */\n      caller\n        /* \"StakingContract4.sol\":5689:5708  stakers[msg.sender] */\n      0x00\n      dup2\n      dup2\n      mstore\n        /* \"StakingContract4.sol\":5689:5696  stakers */\n      0x02\n        /* \"StakingContract4.sol\":5689:5708  stakers[msg.sender] */\n      0x20\n      dup2\n      swap1\n      mstore\n      0x40\n      dup3\n      keccak256\n        /* \"StakingContract4.sol\":5728:5743  block.timestamp */\n      timestamp\n        /* \"StakingContract4.sol\":5689:5725  stakers[msg.sender].timeOfLastUpdate */\n      swap2\n      dup2\n      add\n        /* \"StakingContract4.sol\":5689:5743  stakers[msg.sender].timeOfLastUpdate = block.timestamp */\n      swap2\n      swap1\n      swap2\n      sstore\n        /* \"StakingContract4.sol\":5754:5790  stakers[msg.sender].unclaimedRewards */\n      0x03\n      add\n        /* \"StakingContract4.sol\":5754:5794  stakers[msg.sender].unclaimedRewards = 0 */\n      sstore\n        /* \"StakingContract4.sol\":5805:5851  rewardsToken.safeTransfer(msg.sender, rewards) */\n      tag_90\n      swap1\n        /* \"StakingContract4.sol\":5805:5817  rewardsToken */\n      immutable(\"0x489603a19aaa398638b499cf6d07e7632ded4210a8c094120f2860cef1e4eaf7\")\n      sub(shl(0xa0, 0x01), 0x01)\n        /* \"StakingContract4.sol\":5805:5830  rewardsToken.safeTransfer */\n      and\n      swap1\n        /* \"StakingContract4.sol\":5843:5850  rewards */\n      dup4\n        /* \"StakingContract4.sol\":5805:5830  rewardsToken.safeTransfer */\n      tag_99\n        /* \"StakingContract4.sol\":5805:5851  rewardsToken.safeTransfer(msg.sender, rewards) */\n      jump\t// in\n        /* \"StakingContract4.sol\":6136:7009  function getStakedTokens(address _user) public view returns (StakedToken[] memory) {... */\n    tag_23:\n      sub(shl(0xa0, 0x01), 0x01)\n        /* \"StakingContract4.sol\":6273:6287  stakers[_user] */\n      dup2\n      and\n        /* \"StakingContract4.sol\":6303:6304  0 */\n      0x00\n        /* \"StakingContract4.sol\":6273:6287  stakers[_user] */\n      swap1\n      dup2\n      mstore\n        /* \"StakingContract4.sol\":6273:6280  stakers */\n      0x02\n        /* \"StakingContract4.sol\":6273:6287  stakers[_user] */\n      0x20\n      mstore\n      0x40\n      swap1\n      keccak256\n        /* \"StakingContract4.sol\":6273:6300  stakers[_user].amountStaked */\n      sload\n        /* \"StakingContract4.sol\":6197:6217  StakedToken[] memory */\n      0x60\n      swap1\n        /* \"StakingContract4.sol\":6273:6304  stakers[_user].amountStaked > 0 */\n      iszero\n        /* \"StakingContract4.sol\":6269:7002  if (stakers[_user].amountStaked > 0) {... */\n      tag_101\n      jumpi\n      sub(shl(0xa0, 0x01), 0x01)\n        /* \"StakingContract4.sol\":6469:6483  stakers[_user] */\n      dup3\n      and\n        /* \"StakingContract4.sol\":6414:6448  StakedToken[] memory _stakedTokens */\n      0x00\n        /* \"StakingContract4.sol\":6469:6483  stakers[_user] */\n      swap1\n      dup2\n      mstore\n        /* \"StakingContract4.sol\":6469:6476  stakers */\n      0x02\n        /* \"StakingContract4.sol\":6469:6483  stakers[_user] */\n      0x20\n      mstore\n      0x40\n      dup2\n      keccak256\n        /* \"StakingContract4.sol\":6469:6496  stakers[_user].amountStaked */\n      sload\n        /* \"StakingContract4.sol\":6451:6497  new StakedToken[](stakers[_user].amountStaked) */\n      0xffffffffffffffff\n      dup2\n      gt\n      iszero\n      tag_103\n      jumpi\n      tag_103\n      tag_104\n      jump\t// in\n    tag_103:\n      mload(0x40)\n      swap1\n      dup1\n      dup3\n      mstore\n      dup1\n      0x20\n      mul\n      0x20\n      add\n      dup3\n      add\n      0x40\n      mstore\n      dup1\n      iszero\n      tag_105\n      jumpi\n      dup2\n      0x20\n      add\n    tag_106:\n      0x40\n      dup1\n      mload\n      dup1\n      dup3\n      add\n      swap1\n      swap2\n      mstore\n      0x00\n      dup1\n      dup3\n      mstore\n      0x20\n      dup3\n      add\n      mstore\n      dup2\n      mstore\n      0x20\n      add\n      swap1\n      0x01\n      swap1\n      sub\n      swap1\n      dup2\n      tag_106\n      jumpi\n      swap1\n      pop\n    tag_105:\n      pop\n        /* \"StakingContract4.sol\":6414:6497  StakedToken[] memory _stakedTokens = new StakedToken[](stakers[_user].amountStaked) */\n      swap1\n      pop\n        /* \"StakingContract4.sol\":6512:6526  uint256 _index */\n      0x00\n        /* \"StakingContract4.sol\":6552:6561  uint256 j */\n      dup1\n        /* \"StakingContract4.sol\":6547:6833  for (uint256 j = 0; j < stakers[_user].stakedTokens.length; j++) {... */\n    tag_109:\n      sub(shl(0xa0, 0x01), 0x01)\n        /* \"StakingContract4.sol\":6571:6585  stakers[_user] */\n      dup6\n      and\n      0x00\n      swap1\n      dup2\n      mstore\n        /* \"StakingContract4.sol\":6571:6578  stakers */\n      0x02\n        /* \"StakingContract4.sol\":6571:6585  stakers[_user] */\n      0x20\n      mstore\n      0x40\n      swap1\n      keccak256\n        /* \"StakingContract4.sol\":6571:6598  stakers[_user].stakedTokens */\n      0x01\n      add\n        /* \"StakingContract4.sol\":6571:6605  stakers[_user].stakedTokens.length */\n      sload\n        /* \"StakingContract4.sol\":6567:6605  j < stakers[_user].stakedTokens.length */\n      dup2\n      lt\n        /* \"StakingContract4.sol\":6547:6833  for (uint256 j = 0; j < stakers[_user].stakedTokens.length; j++) {... */\n      iszero\n      tag_110\n      jumpi\n      sub(shl(0xa0, 0x01), 0x01)\n        /* \"StakingContract4.sol\":6635:6649  stakers[_user] */\n      dup6\n      and\n        /* \"StakingContract4.sol\":6685:6686  0 */\n      0x00\n        /* \"StakingContract4.sol\":6635:6649  stakers[_user] */\n      swap1\n      dup2\n      mstore\n        /* \"StakingContract4.sol\":6635:6642  stakers */\n      0x02\n        /* \"StakingContract4.sol\":6635:6649  stakers[_user] */\n      0x20\n      mstore\n      0x40\n      dup2\n      keccak256\n        /* \"StakingContract4.sol\":6635:6662  stakers[_user].stakedTokens */\n      0x01\n      add\n        /* \"StakingContract4.sol\":6635:6665  stakers[_user].stakedTokens[j] */\n      dup1\n      sload\n        /* \"StakingContract4.sol\":6663:6664  j */\n      dup4\n      swap1\n        /* \"StakingContract4.sol\":6635:6665  stakers[_user].stakedTokens[j] */\n      dup2\n      lt\n      tag_113\n      jumpi\n      tag_113\n      tag_71\n      jump\t// in\n    tag_113:\n      0x00\n      swap2\n      dup3\n      mstore\n      0x20\n      swap1\n      swap2\n      keccak256\n      0x02\n      swap1\n      swap2\n      mul\n      add\n        /* \"StakingContract4.sol\":6635:6672  stakers[_user].stakedTokens[j].staker */\n      sload\n      sub(shl(0xa0, 0x01), 0x01)\n      and\n        /* \"StakingContract4.sol\":6635:6688  stakers[_user].stakedTokens[j].staker != (address(0)) */\n      eq\n        /* \"StakingContract4.sol\":6631:6818  if (stakers[_user].stakedTokens[j].staker != (address(0))) {... */\n      tag_115\n      jumpi\n      sub(shl(0xa0, 0x01), 0x01)\n        /* \"StakingContract4.sol\":6737:6751  stakers[_user] */\n      dup6\n      and\n      0x00\n      swap1\n      dup2\n      mstore\n        /* \"StakingContract4.sol\":6737:6744  stakers */\n      0x02\n        /* \"StakingContract4.sol\":6737:6751  stakers[_user] */\n      0x20\n      mstore\n      0x40\n      swap1\n      keccak256\n        /* \"StakingContract4.sol\":6737:6764  stakers[_user].stakedTokens */\n      0x01\n      add\n        /* \"StakingContract4.sol\":6737:6767  stakers[_user].stakedTokens[j] */\n      dup1\n      sload\n        /* \"StakingContract4.sol\":6765:6766  j */\n      dup3\n      swap1\n        /* \"StakingContract4.sol\":6737:6767  stakers[_user].stakedTokens[j] */\n      dup2\n      lt\n      tag_117\n      jumpi\n      tag_117\n      tag_71\n      jump\t// in\n    tag_117:\n      0x00\n      swap2\n      dup3\n      mstore\n      0x20\n      swap2\n      dup3\n      swap1\n      keccak256\n        /* \"StakingContract4.sol\":6713:6767  _stakedTokens[_index] = stakers[_user].stakedTokens[j] */\n      0x40\n      dup1\n      mload\n      dup1\n      dup3\n      add\n      swap1\n      swap2\n      mstore\n        /* \"StakingContract4.sol\":6737:6767  stakers[_user].stakedTokens[j] */\n      0x02\n      swap1\n      swap3\n      mul\n      add\n        /* \"StakingContract4.sol\":6713:6767  _stakedTokens[_index] = stakers[_user].stakedTokens[j] */\n      dup1\n      sload\n      sub(shl(0xa0, 0x01), 0x01)\n      and\n      dup3\n      mstore\n      0x01\n      add\n      sload\n      swap2\n      dup2\n      add\n      swap2\n      swap1\n      swap2\n      mstore\n        /* \"StakingContract4.sol\":6713:6734  _stakedTokens[_index] */\n      dup4\n      mload\n        /* \"StakingContract4.sol\":6713:6726  _stakedTokens */\n      dup5\n      swap1\n        /* \"StakingContract4.sol\":6727:6733  _index */\n      dup5\n      swap1\n        /* \"StakingContract4.sol\":6713:6734  _stakedTokens[_index] */\n      dup2\n      lt\n      tag_120\n      jumpi\n      tag_120\n      tag_71\n      jump\t// in\n    tag_120:\n      0x20\n      mul\n      0x20\n      add\n      add\n        /* \"StakingContract4.sol\":6713:6767  _stakedTokens[_index] = stakers[_user].stakedTokens[j] */\n      dup2\n      swap1\n      mstore\n      pop\n        /* \"StakingContract4.sol\":6790:6798  _index++ */\n      dup2\n      dup1\n      tag_121\n      swap1\n      tag_79\n      jump\t// in\n    tag_121:\n      swap3\n      pop\n      pop\n        /* \"StakingContract4.sol\":6631:6818  if (stakers[_user].stakedTokens[j].staker != (address(0))) {... */\n    tag_115:\n        /* \"StakingContract4.sol\":6607:6610  j++ */\n      dup1\n      tag_122\n      dup2\n      tag_79\n      jump\t// in\n    tag_122:\n      swap2\n      pop\n      pop\n        /* \"StakingContract4.sol\":6547:6833  for (uint256 j = 0; j < stakers[_user].stakedTokens.length; j++) {... */\n      jump(tag_109)\n    tag_110:\n      pop\n        /* \"StakingContract4.sol\":6856:6869  _stakedTokens */\n      swap1\n      swap4\n        /* \"StakingContract4.sol\":6136:7009  function getStakedTokens(address _user) public view returns (StakedToken[] memory) {... */\n      swap3\n      pop\n      pop\n      pop\n      jump\t// out\n        /* \"StakingContract4.sol\":6269:7002  if (stakers[_user].amountStaked > 0) {... */\n    tag_101:\n        /* \"StakingContract4.sol\":6970:6990  new StakedToken[](0) */\n      0x40\n      dup1\n      mload\n        /* \"StakingContract4.sol\":6988:6989  0 */\n      0x00\n        /* \"StakingContract4.sol\":6970:6990  new StakedToken[](0) */\n      dup1\n      dup3\n      mstore\n      0x20\n      dup3\n      add\n      swap1\n      swap3\n      mstore\n      swap1\n      jump(tag_126)\n    tag_127:\n      0x40\n      dup1\n      mload\n      dup1\n      dup3\n      add\n      swap1\n      swap2\n      mstore\n      0x00\n      dup1\n      dup3\n      mstore\n      0x20\n      dup3\n      add\n      mstore\n      dup2\n      mstore\n      0x20\n      add\n      swap1\n      0x01\n      swap1\n      sub\n      swap1\n      dup2\n      tag_127\n      jumpi\n      swap1\n      pop\n    tag_126:\n      pop\n        /* \"StakingContract4.sol\":6963:6990  return new StakedToken[](0) */\n      swap3\n        /* \"StakingContract4.sol\":6136:7009  function getStakedTokens(address _user) public view returns (StakedToken[] memory) {... */\n      swap2\n      pop\n      pop\n      jump\t// out\n        /* \"StakingContract4.sol\":1993:3247  function stake(uint256 _tokenId) external nonReentrant {... */\n    tag_42:\n        /* \"@openzeppelin/contracts/security/ReentrancyGuard.sol\":2261:2282   */\n      tag_130\n        /* \"@openzeppelin/contracts/security/ReentrancyGuard.sol\":2261:2280   */\n      tag_54\n        /* \"@openzeppelin/contracts/security/ReentrancyGuard.sol\":2261:2282   */\n      jump\t// in\n    tag_130:\n        /* \"StakingContract4.sol\":2162:2172  msg.sender */\n      caller\n        /* \"StakingContract4.sol\":2189:2190  0 */\n      0x00\n        /* \"StakingContract4.sol\":2154:2173  stakers[msg.sender] */\n      swap1\n      dup2\n      mstore\n        /* \"StakingContract4.sol\":2154:2161  stakers */\n      0x02\n        /* \"StakingContract4.sol\":2154:2173  stakers[msg.sender] */\n      0x20\n      mstore\n      0x40\n      swap1\n      keccak256\n        /* \"StakingContract4.sol\":2154:2186  stakers[msg.sender].amountStaked */\n      sload\n        /* \"StakingContract4.sol\":2154:2190  stakers[msg.sender].amountStaked > 0 */\n      iszero\n        /* \"StakingContract4.sol\":2150:2327  if (stakers[msg.sender].amountStaked > 0) {... */\n      tag_132\n      jumpi\n        /* \"StakingContract4.sol\":2207:2222  uint256 rewards */\n      0x00\n        /* \"StakingContract4.sol\":2225:2253  calculateRewards(msg.sender) */\n      tag_133\n        /* \"StakingContract4.sol\":2242:2252  msg.sender */\n      caller\n        /* \"StakingContract4.sol\":2225:2241  calculateRewards */\n      tag_63\n        /* \"StakingContract4.sol\":2225:2253  calculateRewards(msg.sender) */\n      jump\t// in\n    tag_133:\n        /* \"StakingContract4.sol\":2276:2286  msg.sender */\n      caller\n        /* \"StakingContract4.sol\":2268:2287  stakers[msg.sender] */\n      0x00\n      swap1\n      dup2\n      mstore\n        /* \"StakingContract4.sol\":2268:2275  stakers */\n      0x02\n        /* \"StakingContract4.sol\":2268:2287  stakers[msg.sender] */\n      0x20\n      mstore\n      0x40\n      dup2\n      keccak256\n        /* \"StakingContract4.sol\":2268:2304  stakers[msg.sender].unclaimedRewards */\n      0x03\n      add\n        /* \"StakingContract4.sol\":2268:2315  stakers[msg.sender].unclaimedRewards += rewards */\n      dup1\n      sload\n        /* \"StakingContract4.sol\":2207:2253  uint256 rewards = calculateRewards(msg.sender) */\n      swap3\n      swap4\n      pop\n      dup4\n      swap3\n        /* \"StakingContract4.sol\":2268:2304  stakers[msg.sender].unclaimedRewards */\n      swap1\n      swap2\n        /* \"StakingContract4.sol\":2268:2287  stakers[msg.sender] */\n      swap1\n        /* \"StakingContract4.sol\":2268:2315  stakers[msg.sender].unclaimedRewards += rewards */\n      tag_134\n      swap1\n        /* \"StakingContract4.sol\":2207:2253  uint256 rewards = calculateRewards(msg.sender) */\n      dup5\n      swap1\n        /* \"StakingContract4.sol\":2268:2315  stakers[msg.sender].unclaimedRewards += rewards */\n      tag_65\n      jump\t// in\n    tag_134:\n      swap1\n      swap2\n      sstore\n      pop\n      pop\n      pop\n        /* \"StakingContract4.sol\":2150:2327  if (stakers[msg.sender].amountStaked > 0) {... */\n    tag_132:\n        /* \"StakingContract4.sol\":2424:2455  nftCollection.ownerOf(_tokenId) */\n      mload(0x40)\n      shl(0xe1, 0x31a9108f)\n      dup2\n      mstore\n      0x04\n      dup2\n      add\n        /* \"#utility.yul\":2654:2679   */\n      dup3\n      swap1\n      mstore\n        /* \"StakingContract4.sol\":2459:2469  msg.sender */\n      caller\n      swap1\n      sub(shl(0xa0, 0x01), 0x01)\n        /* \"StakingContract4.sol\":2424:2437  nftCollection */\n      immutable(\"0xc49c391accf36249bb4a395ffc268a3311395cbcbdac51e050658d427eba8327\")\n        /* \"StakingContract4.sol\":2424:2445  nftCollection.ownerOf */\n      and\n      swap1\n      0x6352211e\n      swap1\n        /* \"#utility.yul\":2627:2645   */\n      0x24\n      add\n        /* \"StakingContract4.sol\":2424:2455  nftCollection.ownerOf(_tokenId) */\n      0x20\n      mload(0x40)\n      dup1\n      dup4\n      sub\n      dup2\n      dup7\n      gas\n      staticcall\n      iszero\n      dup1\n      iszero\n      tag_137\n      jumpi\n      returndatasize\n      0x00\n      dup1\n      returndatacopy\n      revert(0x00, returndatasize)\n    tag_137:\n      pop\n      pop\n      pop\n      pop\n      mload(0x40)\n      returndatasize\n      not(0x1f)\n      0x1f\n      dup3\n      add\n      and\n      dup3\n      add\n      dup1\n      0x40\n      mstore\n      pop\n      dup2\n      add\n      swap1\n      tag_138\n      swap2\n      swap1\n      tag_139\n      jump\t// in\n    tag_138:\n      sub(shl(0xa0, 0x01), 0x01)\n        /* \"StakingContract4.sol\":2424:2469  nftCollection.ownerOf(_tokenId) == msg.sender */\n      and\n      eq\n        /* \"StakingContract4.sol\":2402:2522  require(... */\n      tag_140\n      jumpi\n      mload(0x40)\n      shl(0xe5, 0x461bcd)\n      dup2\n      mstore\n        /* \"#utility.yul\":3246:3248   */\n      0x20\n        /* \"StakingContract4.sol\":2402:2522  require(... */\n      0x04\n      dup3\n      add\n        /* \"#utility.yul\":3228:3249   */\n      mstore\n        /* \"#utility.yul\":3285:3287   */\n      0x19\n        /* \"#utility.yul\":3265:3283   */\n      0x24\n      dup3\n      add\n        /* \"#utility.yul\":3258:3288   */\n      mstore\n        /* \"#utility.yul\":3324:3351   */\n      0x596f7520646f6e2774206f776e207468697320746f6b656e2100000000000000\n        /* \"#utility.yul\":3304:3322   */\n      0x44\n      dup3\n      add\n        /* \"#utility.yul\":3297:3352   */\n      mstore\n        /* \"#utility.yul\":3369:3387   */\n      0x64\n      add\n        /* \"StakingContract4.sol\":2402:2522  require(... */\n      tag_57\n        /* \"#utility.yul\":3044:3393   */\n      jump\n        /* \"StakingContract4.sol\":2402:2522  require(... */\n    tag_140:\n        /* \"StakingContract4.sol\":2604:2667  nftCollection.transferFrom(msg.sender, address(this), _tokenId) */\n      mload(0x40)\n      shl(0xe0, 0x23b872dd)\n      dup2\n      mstore\n        /* \"StakingContract4.sol\":2631:2641  msg.sender */\n      caller\n        /* \"StakingContract4.sol\":2604:2667  nftCollection.transferFrom(msg.sender, address(this), _tokenId) */\n      0x04\n      dup3\n      add\n        /* \"#utility.yul\":4339:4373   */\n      mstore\n        /* \"StakingContract4.sol\":2651:2655  this */\n      address\n        /* \"#utility.yul\":4389:4407   */\n      0x24\n      dup3\n      add\n        /* \"#utility.yul\":4382:4425   */\n      mstore\n        /* \"#utility.yul\":4441:4459   */\n      0x44\n      dup2\n      add\n        /* \"#utility.yul\":4434:4468   */\n      dup3\n      swap1\n      mstore\n        /* \"StakingContract4.sol\":2604:2617  nftCollection */\n      immutable(\"0xc49c391accf36249bb4a395ffc268a3311395cbcbdac51e050658d427eba8327\")\n      sub(shl(0xa0, 0x01), 0x01)\n        /* \"StakingContract4.sol\":2604:2630  nftCollection.transferFrom */\n      and\n      swap1\n      0x23b872dd\n      swap1\n        /* \"#utility.yul\":4251:4269   */\n      0x64\n      add\n        /* \"StakingContract4.sol\":2604:2667  nftCollection.transferFrom(msg.sender, address(this), _tokenId) */\n      0x00\n      mload(0x40)\n      dup1\n      dup4\n      sub\n      dup2\n      0x00\n      dup8\n      dup1\n      extcodesize\n      iszero\n      dup1\n      iszero\n      tag_143\n      jumpi\n      0x00\n      dup1\n      revert\n    tag_143:\n      pop\n      gas\n      call\n      iszero\n      dup1\n      iszero\n      tag_145\n      jumpi\n      returndatasize\n      0x00\n      dup1\n      returndatacopy\n      revert(0x00, returndatasize)\n    tag_145:\n      pop\n      pop\n        /* \"StakingContract4.sol\":2744:2777  StakedToken(msg.sender, _tokenId) */\n      0x40\n      dup1\n      mload\n      dup1\n      dup3\n      add\n      dup3\n      mstore\n        /* \"StakingContract4.sol\":2756:2766  msg.sender */\n      caller\n        /* \"StakingContract4.sol\":2744:2777  StakedToken(msg.sender, _tokenId) */\n      dup1\n      dup3\n      mstore\n      0x20\n      dup1\n      dup4\n      add\n      dup8\n      dup2\n      mstore\n      0x00\n        /* \"StakingContract4.sol\":2842:2861  stakers[msg.sender] */\n      dup4\n      dup2\n      mstore\n        /* \"StakingContract4.sol\":2842:2849  stakers */\n      0x02\n        /* \"StakingContract4.sol\":2842:2861  stakers[msg.sender] */\n      dup1\n      dup5\n      mstore\n      swap6\n      dup2\n      keccak256\n        /* \"StakingContract4.sol\":2842:2874  stakers[msg.sender].stakedTokens */\n      0x01\n      dup1\n      dup3\n      add\n        /* \"StakingContract4.sol\":2842:2892  stakers[msg.sender].stakedTokens.push(stakedToken) */\n      dup1\n      sload\n      dup1\n      dup4\n      add\n      dup3\n      sstore\n      swap1\n      dup5\n      mstore\n      swap5\n      dup4\n      keccak256\n      dup8\n      mload\n      swap6\n      swap1\n      swap9\n      mul\n      swap1\n      swap8\n      add\n      dup1\n      sload\n      not(sub(shl(0xa0, 0x01), 0x01))\n      and\n      sub(shl(0xa0, 0x01), 0x01)\n      swap1\n      swap6\n      and\n      swap5\n      swap1\n      swap5\n      or\n      dup5\n      sstore\n      swap2\n      mload\n      swap3\n      swap1\n      swap6\n      add\n      swap2\n      swap1\n      swap2\n      sstore\n        /* \"StakingContract4.sol\":2961:2980  stakers[msg.sender] */\n      swap1\n      dup4\n      mstore\n        /* \"StakingContract4.sol\":2961:2995  stakers[msg.sender].amountStaked++ */\n      dup1\n      sload\n        /* \"StakingContract4.sol\":2744:2777  StakedToken(msg.sender, _tokenId) */\n      swap2\n      swap5\n      pop\n        /* \"StakingContract4.sol\":2961:2995  stakers[msg.sender].amountStaked++ */\n      swap1\n      swap3\n      pop\n        /* \"StakingContract4.sol\":2842:2861  stakers[msg.sender] */\n      swap1\n        /* \"StakingContract4.sol\":2961:2995  stakers[msg.sender].amountStaked++ */\n      tag_147\n      dup4\n      tag_79\n      jump\t// in\n    tag_147:\n      swap1\n      swap2\n      sstore\n      pop\n      pop\n      pop\n        /* \"StakingContract4.sol\":3078:3101  stakerAddress[_tokenId] */\n      0x00\n      dup2\n      dup2\n      mstore\n        /* \"StakingContract4.sol\":3078:3091  stakerAddress */\n      0x03\n        /* \"StakingContract4.sol\":3078:3101  stakerAddress[_tokenId] */\n      0x20\n      swap1\n      dup2\n      mstore\n      0x40\n      dup1\n      dup4\n      keccak256\n        /* \"StakingContract4.sol\":3078:3114  stakerAddress[_tokenId] = msg.sender */\n      dup1\n      sload\n      not(sub(shl(0xa0, 0x01), 0x01))\n      and\n        /* \"StakingContract4.sol\":3104:3114  msg.sender */\n      caller\n        /* \"StakingContract4.sol\":3078:3114  stakerAddress[_tokenId] = msg.sender */\n      swap1\n      dup2\n      or\n      swap1\n      swap2\n      sstore\n        /* \"StakingContract4.sol\":3185:3204  stakers[msg.sender] */\n      dup4\n      mstore\n        /* \"StakingContract4.sol\":3185:3192  stakers */\n      0x02\n        /* \"StakingContract4.sol\":3185:3204  stakers[msg.sender] */\n      swap2\n      dup3\n      swap1\n      mstore\n      swap1\n      swap2\n      keccak256\n        /* \"StakingContract4.sol\":3224:3239  block.timestamp */\n      timestamp\n        /* \"StakingContract4.sol\":3185:3221  stakers[msg.sender].timeOfLastUpdate */\n      swap2\n      add\n        /* \"StakingContract4.sol\":3185:3239  stakers[msg.sender].timeOfLastUpdate = block.timestamp */\n      sstore\n        /* \"@openzeppelin/contracts/security/ReentrancyGuard.sol\":2303:2323   */\n      tag_90\n        /* \"@openzeppelin/contracts/security/ReentrancyGuard.sol\":1716:1717   */\n      0x01\n        /* \"@openzeppelin/contracts/security/ReentrancyGuard.sol\":2809:2816   */\n      0x00\n        /* \"@openzeppelin/contracts/security/ReentrancyGuard.sol\":2809:2831   */\n      sstore\n        /* \"@openzeppelin/contracts/security/ReentrancyGuard.sol\":2629:2838   */\n      jump\n        /* \"StakingContract4.sol\":5919:6128  function availableRewards(address _staker) public view returns (uint256) {... */\n    tag_49:\n      sub(shl(0xa0, 0x01), 0x01)\n        /* \"StakingContract4.sol\":6062:6078  stakers[_staker] */\n      dup2\n      and\n        /* \"StakingContract4.sol\":5983:5990  uint256 */\n      0x00\n        /* \"StakingContract4.sol\":6062:6078  stakers[_staker] */\n      swap1\n      dup2\n      mstore\n        /* \"StakingContract4.sol\":6062:6069  stakers */\n      0x02\n        /* \"StakingContract4.sol\":6062:6078  stakers[_staker] */\n      0x20\n      mstore\n      0x40\n      dup2\n      keccak256\n        /* \"StakingContract4.sol\":6062:6095  stakers[_staker].unclaimedRewards */\n      0x03\n      add\n      sload\n        /* \"StakingContract4.sol\":5983:5990  uint256 */\n      dup2\n      swap1\n        /* \"StakingContract4.sol\":6021:6046  calculateRewards(_staker) */\n      tag_150\n        /* \"StakingContract4.sol\":6070:6077  _staker */\n      dup5\n        /* \"StakingContract4.sol\":6021:6037  calculateRewards */\n      tag_63\n        /* \"StakingContract4.sol\":6021:6046  calculateRewards(_staker) */\n      jump\t// in\n    tag_150:\n        /* \"StakingContract4.sol\":6021:6095  calculateRewards(_staker) +... */\n      tag_151\n      swap2\n      swap1\n      tag_65\n      jump\t// in\n    tag_151:\n        /* \"StakingContract4.sol\":6003:6095  uint256 rewards = calculateRewards(_staker) +... */\n      swap4\n        /* \"StakingContract4.sol\":5919:6128  function availableRewards(address _staker) public view returns (uint256) {... */\n      swap3\n      pop\n      pop\n      pop\n      jump\t// out\n        /* \"@openzeppelin/contracts/security/ReentrancyGuard.sol\":2336:2623   */\n    tag_54:\n        /* \"@openzeppelin/contracts/security/ReentrancyGuard.sol\":1759:1760   */\n      0x02\n        /* \"@openzeppelin/contracts/security/ReentrancyGuard.sol\":2468:2475   */\n      sload(0x00)\n        /* \"@openzeppelin/contracts/security/ReentrancyGuard.sol\":2468:2487   */\n      sub\n        /* \"@openzeppelin/contracts/security/ReentrancyGuard.sol\":2460:2523   */\n      tag_153\n      jumpi\n      mload(0x40)\n      shl(0xe5, 0x461bcd)\n      dup2\n      mstore\n        /* \"#utility.yul\":5426:5428   */\n      0x20\n        /* \"@openzeppelin/contracts/security/ReentrancyGuard.sol\":2460:2523   */\n      0x04\n      dup3\n      add\n        /* \"#utility.yul\":5408:5429   */\n      mstore\n        /* \"#utility.yul\":5465:5467   */\n      0x1f\n        /* \"#utility.yul\":5445:5463   */\n      0x24\n      dup3\n      add\n        /* \"#utility.yul\":5438:5468   */\n      mstore\n        /* \"#utility.yul\":5504:5537   */\n      0x5265656e7472616e637947756172643a207265656e7472616e742063616c6c00\n        /* \"#utility.yul\":5484:5502   */\n      0x44\n      dup3\n      add\n        /* \"#utility.yul\":5477:5538   */\n      mstore\n        /* \"#utility.yul\":5555:5573   */\n      0x64\n      add\n        /* \"@openzeppelin/contracts/security/ReentrancyGuard.sol\":2460:2523   */\n      tag_57\n        /* \"#utility.yul\":5224:5579   */\n      jump\n        /* \"@openzeppelin/contracts/security/ReentrancyGuard.sol\":2460:2523   */\n    tag_153:\n        /* \"@openzeppelin/contracts/security/ReentrancyGuard.sol\":1759:1760   */\n      0x02\n        /* \"@openzeppelin/contracts/security/ReentrancyGuard.sol\":2598:2605   */\n      0x00\n        /* \"@openzeppelin/contracts/security/ReentrancyGuard.sol\":2598:2616   */\n      sstore\n        /* \"@openzeppelin/contracts/security/ReentrancyGuard.sol\":2336:2623   */\n      jump\t// out\n        /* \"StakingContract4.sol\":7257:7557  function calculateRewards(address _staker)... */\n    tag_63:\n        /* \"StakingContract4.sol\":7526:7540  rewardsPerHour */\n      sload(0x01)\n      sub(shl(0xa0, 0x01), 0x01)\n        /* \"StakingContract4.sol\":7482:7498  stakers[_staker] */\n      dup3\n      and\n        /* \"StakingContract4.sol\":7350:7366  uint256 _rewards */\n      0x00\n        /* \"StakingContract4.sol\":7482:7498  stakers[_staker] */\n      swap1\n      dup2\n      mstore\n        /* \"StakingContract4.sol\":7482:7489  stakers */\n      0x02\n        /* \"StakingContract4.sol\":7482:7498  stakers[_staker] */\n      0x20\n      dup2\n      swap1\n      mstore\n      0x40\n      dup3\n      keccak256\n        /* \"StakingContract4.sol\":7482:7511  stakers[_staker].amountStaked */\n      dup1\n      sload\n        /* \"StakingContract4.sol\":7428:7461  stakers[_staker].timeOfLastUpdate */\n      swap2\n      add\n      sload\n        /* \"StakingContract4.sol\":7350:7366  uint256 _rewards */\n      swap2\n      swap3\n        /* \"StakingContract4.sol\":7544:7548  3600 */\n      0x0e10\n      swap3\n        /* \"StakingContract4.sol\":7526:7540  rewardsPerHour */\n      swap1\n      swap2\n        /* \"StakingContract4.sol\":7482:7511  stakers[_staker].amountStaked */\n      swap1\n        /* \"StakingContract4.sol\":7410:7461  block.timestamp - stakers[_staker].timeOfLastUpdate */\n      tag_157\n      swap1\n        /* \"StakingContract4.sol\":7410:7425  block.timestamp */\n      timestamp\n        /* \"StakingContract4.sol\":7410:7461  block.timestamp - stakers[_staker].timeOfLastUpdate */\n      tag_158\n      jump\t// in\n    tag_157:\n        /* \"StakingContract4.sol\":7409:7511  (block.timestamp - stakers[_staker].timeOfLastUpdate) *... */\n      tag_159\n      swap2\n      swap1\n      tag_160\n      jump\t// in\n    tag_159:\n        /* \"StakingContract4.sol\":7393:7540  (... */\n      tag_161\n      swap2\n      swap1\n      tag_160\n      jump\t// in\n    tag_161:\n        /* \"StakingContract4.sol\":7392:7548  ((... */\n      tag_162\n      swap2\n      swap1\n      tag_163\n      jump\t// in\n    tag_162:\n        /* \"StakingContract4.sol\":7384:7549  return (((... */\n      swap3\n        /* \"StakingContract4.sol\":7257:7557  function calculateRewards(address _staker)... */\n      swap2\n      pop\n      pop\n      jump\t// out\n        /* \"@openzeppelin/contracts/security/ReentrancyGuard.sol\":2629:2838   */\n    tag_91:\n        /* \"@openzeppelin/contracts/security/ReentrancyGuard.sol\":1716:1717   */\n      0x01\n        /* \"@openzeppelin/contracts/security/ReentrancyGuard.sol\":2809:2816   */\n      0x00\n        /* \"@openzeppelin/contracts/security/ReentrancyGuard.sol\":2809:2831   */\n      sstore\n        /* \"@openzeppelin/contracts/security/ReentrancyGuard.sol\":2629:2838   */\n      jump\t// out\n        /* \"@openzeppelin/contracts/token/ERC20/utils/SafeERC20.sol\":763:968   */\n    tag_99:\n        /* \"@openzeppelin/contracts/token/ERC20/utils/SafeERC20.sol\":902:960   */\n      0x40\n      dup1\n      mload\n      sub(shl(0xa0, 0x01), 0x01)\n        /* \"#utility.yul\":6301:6356   */\n      dup5\n      and\n        /* \"@openzeppelin/contracts/token/ERC20/utils/SafeERC20.sol\":902:960   */\n      0x24\n      dup3\n      add\n        /* \"#utility.yul\":6283:6357   */\n      mstore\n        /* \"#utility.yul\":6373:6391   */\n      0x44\n      dup1\n      dup3\n      add\n        /* \"#utility.yul\":6366:6400   */\n      dup5\n      swap1\n      mstore\n        /* \"@openzeppelin/contracts/token/ERC20/utils/SafeERC20.sol\":902:960   */\n      dup3\n      mload\n      dup1\n      dup4\n      sub\n      swap1\n      swap2\n      add\n      dup2\n      mstore\n        /* \"#utility.yul\":6256:6274   */\n      0x64\n      swap1\n      swap2\n      add\n        /* \"@openzeppelin/contracts/token/ERC20/utils/SafeERC20.sol\":902:960   */\n      swap1\n      swap2\n      mstore\n      0x20\n      dup2\n      add\n      dup1\n      mload\n      0xffffffffffffffffffffffffffffffffffffffffffffffffffffffff\n      and\n      shl(0xe0, 0xa9059cbb)\n      or\n      swap1\n      mstore\n        /* \"@openzeppelin/contracts/token/ERC20/utils/SafeERC20.sol\":875:961   */\n      tag_166\n      swap1\n        /* \"@openzeppelin/contracts/token/ERC20/utils/SafeERC20.sol\":895:900   */\n      dup5\n      swap1\n        /* \"@openzeppelin/contracts/token/ERC20/utils/SafeERC20.sol\":875:894   */\n      tag_169\n        /* \"@openzeppelin/contracts/token/ERC20/utils/SafeERC20.sol\":875:961   */\n      jump\t// in\n    tag_166:\n        /* \"@openzeppelin/contracts/token/ERC20/utils/SafeERC20.sol\":763:968   */\n      pop\n      pop\n      pop\n      jump\t// out\n        /* \"@openzeppelin/contracts/token/ERC20/utils/SafeERC20.sol\":3747:4453   */\n    tag_169:\n        /* \"@openzeppelin/contracts/token/ERC20/utils/SafeERC20.sol\":4166:4189   */\n      0x00\n        /* \"@openzeppelin/contracts/token/ERC20/utils/SafeERC20.sol\":4192:4261   */\n      tag_171\n        /* \"@openzeppelin/contracts/token/ERC20/utils/SafeERC20.sol\":4220:4224   */\n      dup3\n        /* \"@openzeppelin/contracts/token/ERC20/utils/SafeERC20.sol\":4192:4261   */\n      mload(0x40)\n      dup1\n      0x40\n      add\n      0x40\n      mstore\n      dup1\n      0x20\n      dup2\n      mstore\n      0x20\n      add\n      0x5361666545524332303a206c6f772d6c6576656c2063616c6c206661696c6564\n      dup2\n      mstore\n      pop\n        /* \"@openzeppelin/contracts/token/ERC20/utils/SafeERC20.sol\":4200:4205   */\n      dup6\n      sub(shl(0xa0, 0x01), 0x01)\n        /* \"@openzeppelin/contracts/token/ERC20/utils/SafeERC20.sol\":4192:4219   */\n      and\n      tag_172\n      swap1\n        /* \"@openzeppelin/contracts/token/ERC20/utils/SafeERC20.sol\":4192:4261   */\n      swap3\n      swap2\n      swap1\n      0xffffffff\n      and\n      jump\t// in\n    tag_171:\n        /* \"@openzeppelin/contracts/token/ERC20/utils/SafeERC20.sol\":4275:4292   */\n      dup1\n      mload\n        /* \"@openzeppelin/contracts/token/ERC20/utils/SafeERC20.sol\":4166:4261   */\n      swap1\n      swap2\n      pop\n        /* \"@openzeppelin/contracts/token/ERC20/utils/SafeERC20.sol\":4275:4296   */\n      iszero\n        /* \"@openzeppelin/contracts/token/ERC20/utils/SafeERC20.sol\":4271:4447   */\n      tag_166\n      jumpi\n        /* \"@openzeppelin/contracts/token/ERC20/utils/SafeERC20.sol\":4370:4380   */\n      dup1\n        /* \"@openzeppelin/contracts/token/ERC20/utils/SafeERC20.sol\":4359:4389   */\n      dup1\n      0x20\n      add\n      swap1\n      mload\n      dup2\n      add\n      swap1\n      tag_174\n      swap2\n      swap1\n      tag_175\n      jump\t// in\n    tag_174:\n        /* \"@openzeppelin/contracts/token/ERC20/utils/SafeERC20.sol\":4351:4436   */\n      tag_166\n      jumpi\n      mload(0x40)\n      shl(0xe5, 0x461bcd)\n      dup2\n      mstore\n        /* \"#utility.yul\":6895:6897   */\n      0x20\n        /* \"@openzeppelin/contracts/token/ERC20/utils/SafeERC20.sol\":4351:4436   */\n      0x04\n      dup3\n      add\n        /* \"#utility.yul\":6877:6898   */\n      mstore\n        /* \"#utility.yul\":6934:6936   */\n      0x2a\n        /* \"#utility.yul\":6914:6932   */\n      0x24\n      dup3\n      add\n        /* \"#utility.yul\":6907:6937   */\n      mstore\n        /* \"#utility.yul\":6973:7007   */\n      0x5361666545524332303a204552433230206f7065726174696f6e20646964206e\n        /* \"#utility.yul\":6953:6971   */\n      0x44\n      dup3\n      add\n        /* \"#utility.yul\":6946:7008   */\n      mstore\n        /* \"#utility.yul\":7044:7056   */\n      0x6f74207375636365656400000000000000000000000000000000000000000000\n        /* \"#utility.yul\":7024:7042   */\n      0x64\n      dup3\n      add\n        /* \"#utility.yul\":7017:7057   */\n      mstore\n        /* \"#utility.yul\":7074:7093   */\n      0x84\n      add\n        /* \"@openzeppelin/contracts/token/ERC20/utils/SafeERC20.sol\":4351:4436   */\n      tag_57\n        /* \"#utility.yul\":6693:7099   */\n      jump\n        /* \"@openzeppelin/contracts/utils/Address.sol\":3873:4096   */\n    tag_172:\n        /* \"@openzeppelin/contracts/utils/Address.sol\":4006:4018   */\n      0x60\n        /* \"@openzeppelin/contracts/utils/Address.sol\":4037:4089   */\n      tag_180\n        /* \"@openzeppelin/contracts/utils/Address.sol\":4059:4065   */\n      dup5\n        /* \"@openzeppelin/contracts/utils/Address.sol\":4067:4071   */\n      dup5\n        /* \"@openzeppelin/contracts/utils/Address.sol\":4073:4074   */\n      0x00\n        /* \"@openzeppelin/contracts/utils/Address.sol\":4076:4088   */\n      dup6\n        /* \"@openzeppelin/contracts/utils/Address.sol\":4037:4058   */\n      tag_181\n        /* \"@openzeppelin/contracts/utils/Address.sol\":4037:4089   */\n      jump\t// in\n    tag_180:\n        /* \"@openzeppelin/contracts/utils/Address.sol\":4030:4089   */\n      swap5\n        /* \"@openzeppelin/contracts/utils/Address.sol\":3873:4096   */\n      swap4\n      pop\n      pop\n      pop\n      pop\n      jump\t// out\n        /* \"@openzeppelin/contracts/utils/Address.sol\":4960:5406   */\n    tag_181:\n        /* \"@openzeppelin/contracts/utils/Address.sol\":5125:5137   */\n      0x60\n        /* \"@openzeppelin/contracts/utils/Address.sol\":5182:5187   */\n      dup3\n        /* \"@openzeppelin/contracts/utils/Address.sol\":5157:5178   */\n      selfbalance\n        /* \"@openzeppelin/contracts/utils/Address.sol\":5157:5187   */\n      lt\n      iszero\n        /* \"@openzeppelin/contracts/utils/Address.sol\":5149:5230   */\n      tag_183\n      jumpi\n      mload(0x40)\n      shl(0xe5, 0x461bcd)\n      dup2\n      mstore\n        /* \"#utility.yul\":7306:7308   */\n      0x20\n        /* \"@openzeppelin/contracts/utils/Address.sol\":5149:5230   */\n      0x04\n      dup3\n      add\n        /* \"#utility.yul\":7288:7309   */\n      mstore\n        /* \"#utility.yul\":7345:7347   */\n      0x26\n        /* \"#utility.yul\":7325:7343   */\n      0x24\n      dup3\n      add\n        /* \"#utility.yul\":7318:7348   */\n      mstore\n        /* \"#utility.yul\":7384:7418   */\n      0x416464726573733a20696e73756666696369656e742062616c616e636520666f\n        /* \"#utility.yul\":7364:7382   */\n      0x44\n      dup3\n      add\n        /* \"#utility.yul\":7357:7419   */\n      mstore\n        /* \"#utility.yul\":7455:7463   */\n      0x722063616c6c0000000000000000000000000000000000000000000000000000\n        /* \"#utility.yul\":7435:7453   */\n      0x64\n      dup3\n      add\n        /* \"#utility.yul\":7428:7464   */\n      mstore\n        /* \"#utility.yul\":7481:7500   */\n      0x84\n      add\n        /* \"@openzeppelin/contracts/utils/Address.sol\":5149:5230   */\n      tag_57\n        /* \"#utility.yul\":7104:7506   */\n      jump\n        /* \"@openzeppelin/contracts/utils/Address.sol\":5149:5230   */\n    tag_183:\n        /* \"@openzeppelin/contracts/utils/Address.sol\":5241:5253   */\n      0x00\n        /* \"@openzeppelin/contracts/utils/Address.sol\":5255:5278   */\n      dup1\n        /* \"@openzeppelin/contracts/utils/Address.sol\":5282:5288   */\n      dup7\n      sub(shl(0xa0, 0x01), 0x01)\n        /* \"@openzeppelin/contracts/utils/Address.sol\":5282:5293   */\n      and\n        /* \"@openzeppelin/contracts/utils/Address.sol\":5301:5306   */\n      dup6\n        /* \"@openzeppelin/contracts/utils/Address.sol\":5308:5312   */\n      dup8\n        /* \"@openzeppelin/contracts/utils/Address.sol\":5282:5313   */\n      mload(0x40)\n      tag_186\n      swap2\n      swap1\n      tag_187\n      jump\t// in\n    tag_186:\n      0x00\n      mload(0x40)\n      dup1\n      dup4\n      sub\n      dup2\n      dup6\n      dup8\n      gas\n      call\n      swap3\n      pop\n      pop\n      pop\n      returndatasize\n      dup1\n      0x00\n      dup2\n      eq\n      tag_190\n      jumpi\n      mload(0x40)\n      swap2\n      pop\n      and(add(returndatasize, 0x3f), not(0x1f))\n      dup3\n      add\n      0x40\n      mstore\n      returndatasize\n      dup3\n      mstore\n      returndatasize\n      0x00\n      0x20\n      dup5\n      add\n      returndatacopy\n      jump(tag_189)\n    tag_190:\n      0x60\n      swap2\n      pop\n    tag_189:\n      pop\n        /* \"@openzeppelin/contracts/utils/Address.sol\":5240:5313   */\n      swap2\n      pop\n      swap2\n      pop\n        /* \"@openzeppelin/contracts/utils/Address.sol\":5330:5399   */\n      tag_191\n        /* \"@openzeppelin/contracts/utils/Address.sol\":5357:5363   */\n      dup8\n        /* \"@openzeppelin/contracts/utils/Address.sol\":5365:5372   */\n      dup4\n        /* \"@openzeppelin/contracts/utils/Address.sol\":5374:5384   */\n      dup4\n        /* \"@openzeppelin/contracts/utils/Address.sol\":5386:5398   */\n      dup8\n        /* \"@openzeppelin/contracts/utils/Address.sol\":5330:5356   */\n      tag_192\n        /* \"@openzeppelin/contracts/utils/Address.sol\":5330:5399   */\n      jump\t// in\n    tag_191:\n        /* \"@openzeppelin/contracts/utils/Address.sol\":5323:5399   */\n      swap8\n        /* \"@openzeppelin/contracts/utils/Address.sol\":4960:5406   */\n      swap7\n      pop\n      pop\n      pop\n      pop\n      pop\n      pop\n      pop\n      jump\t// out\n        /* \"@openzeppelin/contracts/utils/Address.sol\":7466:8094   */\n    tag_192:\n        /* \"@openzeppelin/contracts/utils/Address.sol\":7646:7658   */\n      0x60\n        /* \"@openzeppelin/contracts/utils/Address.sol\":7674:7681   */\n      dup4\n        /* \"@openzeppelin/contracts/utils/Address.sol\":7670:8088   */\n      iszero\n      tag_194\n      jumpi\n        /* \"@openzeppelin/contracts/utils/Address.sol\":7701:7711   */\n      dup3\n        /* \"@openzeppelin/contracts/utils/Address.sol\":7701:7718   */\n      mload\n        /* \"@openzeppelin/contracts/utils/Address.sol\":7722:7723   */\n      0x00\n        /* \"@openzeppelin/contracts/utils/Address.sol\":7701:7723   */\n      sub\n        /* \"@openzeppelin/contracts/utils/Address.sol\":7697:7983   */\n      tag_198\n      jumpi\n      sub(shl(0xa0, 0x01), 0x01)\n        /* \"@openzeppelin/contracts/utils/Address.sol\":1465:1484   */\n      dup6\n      and\n      extcodesize\n        /* \"@openzeppelin/contracts/utils/Address.sol\":7908:7968   */\n      tag_198\n      jumpi\n      mload(0x40)\n      shl(0xe5, 0x461bcd)\n      dup2\n      mstore\n        /* \"#utility.yul\":8255:8257   */\n      0x20\n        /* \"@openzeppelin/contracts/utils/Address.sol\":7908:7968   */\n      0x04\n      dup3\n      add\n        /* \"#utility.yul\":8237:8258   */\n      mstore\n        /* \"#utility.yul\":8294:8296   */\n      0x1d\n        /* \"#utility.yul\":8274:8292   */\n      0x24\n      dup3\n      add\n        /* \"#utility.yul\":8267:8297   */\n      mstore\n        /* \"#utility.yul\":8333:8364   */\n      0x416464726573733a2063616c6c20746f206e6f6e2d636f6e7472616374000000\n        /* \"#utility.yul\":8313:8331   */\n      0x44\n      dup3\n      add\n        /* \"#utility.yul\":8306:8365   */\n      mstore\n        /* \"#utility.yul\":8382:8400   */\n      0x64\n      add\n        /* \"@openzeppelin/contracts/utils/Address.sol\":7908:7968   */\n      tag_57\n        /* \"#utility.yul\":8053:8406   */\n      jump\n        /* \"@openzeppelin/contracts/utils/Address.sol\":7908:7968   */\n    tag_198:\n      pop\n        /* \"@openzeppelin/contracts/utils/Address.sol\":8003:8013   */\n      dup2\n        /* \"@openzeppelin/contracts/utils/Address.sol\":7996:8013   */\n      jump(tag_180)\n        /* \"@openzeppelin/contracts/utils/Address.sol\":7670:8088   */\n    tag_194:\n        /* \"@openzeppelin/contracts/utils/Address.sol\":8044:8077   */\n      tag_180\n        /* \"@openzeppelin/contracts/utils/Address.sol\":8052:8062   */\n      dup4\n        /* \"@openzeppelin/contracts/utils/Address.sol\":8064:8076   */\n      dup4\n        /* \"@openzeppelin/contracts/utils/Address.sol\":8775:8792   */\n      dup2\n      mload\n        /* \"@openzeppelin/contracts/utils/Address.sol\":8775:8796   */\n      iszero\n        /* \"@openzeppelin/contracts/utils/Address.sol\":8771:9150   */\n      tag_206\n      jumpi\n        /* \"@openzeppelin/contracts/utils/Address.sol\":9003:9013   */\n      dup2\n        /* \"@openzeppelin/contracts/utils/Address.sol\":8997:9014   */\n      mload\n        /* \"@openzeppelin/contracts/utils/Address.sol\":9059:9074   */\n      dup1\n        /* \"@openzeppelin/contracts/utils/Address.sol\":9046:9056   */\n      dup4\n        /* \"@openzeppelin/contracts/utils/Address.sol\":9042:9044   */\n      0x20\n        /* \"@openzeppelin/contracts/utils/Address.sol\":9038:9057   */\n      add\n        /* \"@openzeppelin/contracts/utils/Address.sol\":9031:9075   */\n      revert\n        /* \"@openzeppelin/contracts/utils/Address.sol\":8771:9150   */\n    tag_206:\n        /* \"@openzeppelin/contracts/utils/Address.sol\":9126:9138   */\n      dup1\n        /* \"@openzeppelin/contracts/utils/Address.sol\":9119:9139   */\n      mload(0x40)\n      shl(0xe5, 0x461bcd)\n      dup2\n      mstore\n      0x04\n      add\n      tag_57\n      swap2\n      swap1\n      tag_209\n      jump\t// in\n        /* \"#utility.yul\":14:194   */\n    tag_16:\n        /* \"#utility.yul\":73:79   */\n      0x00\n        /* \"#utility.yul\":126:128   */\n      0x20\n        /* \"#utility.yul\":114:123   */\n      dup3\n        /* \"#utility.yul\":105:112   */\n      dup5\n        /* \"#utility.yul\":101:124   */\n      sub\n        /* \"#utility.yul\":97:129   */\n      slt\n        /* \"#utility.yul\":94:146   */\n      iszero\n      tag_215\n      jumpi\n        /* \"#utility.yul\":142:143   */\n      0x00\n        /* \"#utility.yul\":139:140   */\n      dup1\n        /* \"#utility.yul\":132:144   */\n      revert\n        /* \"#utility.yul\":94:146   */\n    tag_215:\n      pop\n        /* \"#utility.yul\":165:188   */\n      calldataload\n      swap2\n        /* \"#utility.yul\":14:194   */\n      swap1\n      pop\n      jump\t// out\n        /* \"#utility.yul\":199:353   */\n    tag_210:\n      sub(shl(0xa0, 0x01), 0x01)\n        /* \"#utility.yul\":278:283   */\n      dup2\n        /* \"#utility.yul\":274:328   */\n      and\n        /* \"#utility.yul\":267:272   */\n      dup2\n        /* \"#utility.yul\":264:329   */\n      eq\n        /* \"#utility.yul\":254:347   */\n      tag_90\n      jumpi\n        /* \"#utility.yul\":343:344   */\n      0x00\n        /* \"#utility.yul\":340:341   */\n      dup1\n        /* \"#utility.yul\":333:345   */\n      revert\n        /* \"#utility.yul\":358:605   */\n    tag_22:\n        /* \"#utility.yul\":417:423   */\n      0x00\n        /* \"#utility.yul\":470:472   */\n      0x20\n        /* \"#utility.yul\":458:467   */\n      dup3\n        /* \"#utility.yul\":449:456   */\n      dup5\n        /* \"#utility.yul\":445:468   */\n      sub\n        /* \"#utility.yul\":441:473   */\n      slt\n        /* \"#utility.yul\":438:490   */\n      iszero\n      tag_219\n      jumpi\n        /* \"#utility.yul\":486:487   */\n      0x00\n        /* \"#utility.yul\":483:484   */\n      dup1\n        /* \"#utility.yul\":476:488   */\n      revert\n        /* \"#utility.yul\":438:490   */\n    tag_219:\n        /* \"#utility.yul\":525:534   */\n      dup2\n        /* \"#utility.yul\":512:535   */\n      calldataload\n        /* \"#utility.yul\":544:575   */\n      tag_151\n        /* \"#utility.yul\":569:574   */\n      dup2\n        /* \"#utility.yul\":544:575   */\n      tag_210\n      jump\t// in\n        /* \"#utility.yul\":610:1455   */\n    tag_25:\n        /* \"#utility.yul\":839:841   */\n      0x20\n        /* \"#utility.yul\":891:912   */\n      dup1\n      dup3\n      mstore\n        /* \"#utility.yul\":961:974   */\n      dup3\n      mload\n        /* \"#utility.yul\":864:882   */\n      dup3\n      dup3\n      add\n        /* \"#utility.yul\":983:1005   */\n      dup2\n      swap1\n      mstore\n        /* \"#utility.yul\":810:814   */\n      0x00\n      swap2\n        /* \"#utility.yul\":839:841   */\n      swap1\n        /* \"#utility.yul\":1024:1026   */\n      0x40\n      swap1\n        /* \"#utility.yul\":1042:1060   */\n      dup2\n      dup6\n      add\n      swap1\n        /* \"#utility.yul\":1083:1098   */\n      dup7\n      dup5\n      add\n        /* \"#utility.yul\":810:814   */\n      dup6\n        /* \"#utility.yul\":1126:1429   */\n    tag_222:\n        /* \"#utility.yul\":1140:1146   */\n      dup3\n        /* \"#utility.yul\":1137:1138   */\n      dup2\n        /* \"#utility.yul\":1134:1147   */\n      lt\n        /* \"#utility.yul\":1126:1429   */\n      iszero\n      tag_224\n      jumpi\n        /* \"#utility.yul\":1199:1212   */\n      dup2\n      mload\n        /* \"#utility.yul\":1241:1250   */\n      dup1\n      mload\n      sub(shl(0xa0, 0x01), 0x01)\n        /* \"#utility.yul\":1237:1295   */\n      and\n        /* \"#utility.yul\":1225:1296   */\n      dup6\n      mstore\n        /* \"#utility.yul\":1336:1347   */\n      dup7\n      add\n        /* \"#utility.yul\":1330:1348   */\n      mload\n        /* \"#utility.yul\":1316:1328   */\n      dup7\n      dup6\n      add\n        /* \"#utility.yul\":1309:1349   */\n      mstore\n        /* \"#utility.yul\":1369:1381   */\n      swap3\n      dup5\n      add\n      swap3\n        /* \"#utility.yul\":1404:1419   */\n      swap1\n      dup6\n      add\n      swap1\n        /* \"#utility.yul\":1162:1163   */\n      0x01\n        /* \"#utility.yul\":1155:1164   */\n      add\n        /* \"#utility.yul\":1126:1429   */\n      jump(tag_222)\n    tag_224:\n      pop\n        /* \"#utility.yul\":1446:1449   */\n      swap2\n      swap8\n        /* \"#utility.yul\":610:1455   */\n      swap7\n      pop\n      pop\n      pop\n      pop\n      pop\n      pop\n      pop\n      jump\t// out\n        /* \"#utility.yul\":3398:3525   */\n    tag_211:\n        /* \"#utility.yul\":3459:3469   */\n      0x4e487b71\n        /* \"#utility.yul\":3454:3457   */\n      0xe0\n        /* \"#utility.yul\":3450:3470   */\n      shl\n        /* \"#utility.yul\":3447:3448   */\n      0x00\n        /* \"#utility.yul\":3440:3471   */\n      mstore\n        /* \"#utility.yul\":3490:3494   */\n      0x11\n        /* \"#utility.yul\":3487:3488   */\n      0x04\n        /* \"#utility.yul\":3480:3495   */\n      mstore\n        /* \"#utility.yul\":3514:3518   */\n      0x24\n        /* \"#utility.yul\":3511:3512   */\n      0x00\n        /* \"#utility.yul\":3504:3519   */\n      revert\n        /* \"#utility.yul\":3530:3658   */\n    tag_65:\n        /* \"#utility.yul\":3570:3573   */\n      0x00\n        /* \"#utility.yul\":3601:3602   */\n      dup3\n        /* \"#utility.yul\":3597:3603   */\n      not\n        /* \"#utility.yul\":3594:3595   */\n      dup3\n        /* \"#utility.yul\":3591:3604   */\n      gt\n        /* \"#utility.yul\":3588:3627   */\n      iszero\n      tag_235\n      jumpi\n        /* \"#utility.yul\":3607:3625   */\n      tag_235\n      tag_211\n      jump\t// in\n    tag_235:\n      pop\n        /* \"#utility.yul\":3643:3652   */\n      add\n      swap1\n        /* \"#utility.yul\":3530:3658   */\n      jump\t// out\n        /* \"#utility.yul\":3663:3790   */\n    tag_71:\n        /* \"#utility.yul\":3724:3734   */\n      0x4e487b71\n        /* \"#utility.yul\":3719:3722   */\n      0xe0\n        /* \"#utility.yul\":3715:3735   */\n      shl\n        /* \"#utility.yul\":3712:3713   */\n      0x00\n        /* \"#utility.yul\":3705:3736   */\n      mstore\n        /* \"#utility.yul\":3755:3759   */\n      0x32\n        /* \"#utility.yul\":3752:3753   */\n      0x04\n        /* \"#utility.yul\":3745:3760   */\n      mstore\n        /* \"#utility.yul\":3779:3783   */\n      0x24\n        /* \"#utility.yul\":3776:3777   */\n      0x00\n        /* \"#utility.yul\":3769:3784   */\n      revert\n        /* \"#utility.yul\":3795:3930   */\n    tag_79:\n        /* \"#utility.yul\":3834:3837   */\n      0x00\n        /* \"#utility.yul\":3855:3872   */\n      0x01\n      dup3\n      add\n        /* \"#utility.yul\":3852:3895   */\n      tag_239\n      jumpi\n        /* \"#utility.yul\":3875:3893   */\n      tag_239\n      tag_211\n      jump\t// in\n    tag_239:\n      pop\n        /* \"#utility.yul\":3922:3923   */\n      0x01\n        /* \"#utility.yul\":3911:3924   */\n      add\n      swap1\n        /* \"#utility.yul\":3795:3930   */\n      jump\t// out\n        /* \"#utility.yul\":3935:4071   */\n    tag_84:\n        /* \"#utility.yul\":3974:3977   */\n      0x00\n        /* \"#utility.yul\":4002:4007   */\n      dup2\n        /* \"#utility.yul\":3992:4031   */\n      tag_242\n      jumpi\n        /* \"#utility.yul\":4011:4029   */\n      tag_242\n      tag_211\n      jump\t// in\n    tag_242:\n      pop\n      not(0x00)\n        /* \"#utility.yul\":4047:4065   */\n      add\n      swap1\n        /* \"#utility.yul\":3935:4071   */\n      jump\t// out\n        /* \"#utility.yul\":4836:4963   */\n    tag_104:\n        /* \"#utility.yul\":4897:4907   */\n      0x4e487b71\n        /* \"#utility.yul\":4892:4895   */\n      0xe0\n        /* \"#utility.yul\":4888:4908   */\n      shl\n        /* \"#utility.yul\":4885:4886   */\n      0x00\n        /* \"#utility.yul\":4878:4909   */\n      mstore\n        /* \"#utility.yul\":4928:4932   */\n      0x41\n        /* \"#utility.yul\":4925:4926   */\n      0x04\n        /* \"#utility.yul\":4918:4933   */\n      mstore\n        /* \"#utility.yul\":4952:4956   */\n      0x24\n        /* \"#utility.yul\":4949:4950   */\n      0x00\n        /* \"#utility.yul\":4942:4957   */\n      revert\n        /* \"#utility.yul\":4968:5219   */\n    tag_139:\n        /* \"#utility.yul\":5038:5044   */\n      0x00\n        /* \"#utility.yul\":5091:5093   */\n      0x20\n        /* \"#utility.yul\":5079:5088   */\n      dup3\n        /* \"#utility.yul\":5070:5077   */\n      dup5\n        /* \"#utility.yul\":5066:5089   */\n      sub\n        /* \"#utility.yul\":5062:5094   */\n      slt\n        /* \"#utility.yul\":5059:5111   */\n      iszero\n      tag_247\n      jumpi\n        /* \"#utility.yul\":5107:5108   */\n      0x00\n        /* \"#utility.yul\":5104:5105   */\n      dup1\n        /* \"#utility.yul\":5097:5109   */\n      revert\n        /* \"#utility.yul\":5059:5111   */\n    tag_247:\n        /* \"#utility.yul\":5139:5148   */\n      dup2\n        /* \"#utility.yul\":5133:5149   */\n      mload\n        /* \"#utility.yul\":5158:5189   */\n      tag_151\n        /* \"#utility.yul\":5183:5188   */\n      dup2\n        /* \"#utility.yul\":5158:5189   */\n      tag_210\n      jump\t// in\n        /* \"#utility.yul\":5584:5709   */\n    tag_158:\n        /* \"#utility.yul\":5624:5628   */\n      0x00\n        /* \"#utility.yul\":5652:5653   */\n      dup3\n        /* \"#utility.yul\":5649:5650   */\n      dup3\n        /* \"#utility.yul\":5646:5654   */\n      lt\n        /* \"#utility.yul\":5643:5677   */\n      iszero\n      tag_252\n      jumpi\n        /* \"#utility.yul\":5657:5675   */\n      tag_252\n      tag_211\n      jump\t// in\n    tag_252:\n      pop\n        /* \"#utility.yul\":5694:5703   */\n      sub\n      swap1\n        /* \"#utility.yul\":5584:5709   */\n      jump\t// out\n        /* \"#utility.yul\":5714:5882   */\n    tag_160:\n        /* \"#utility.yul\":5754:5761   */\n      0x00\n        /* \"#utility.yul\":5820:5821   */\n      dup2\n        /* \"#utility.yul\":5816:5817   */\n      0x00\n        /* \"#utility.yul\":5812:5818   */\n      not\n        /* \"#utility.yul\":5808:5822   */\n      div\n        /* \"#utility.yul\":5805:5806   */\n      dup4\n        /* \"#utility.yul\":5802:5823   */\n      gt\n        /* \"#utility.yul\":5797:5798   */\n      dup3\n        /* \"#utility.yul\":5790:5799   */\n      iszero\n        /* \"#utility.yul\":5783:5800   */\n      iszero\n        /* \"#utility.yul\":5779:5824   */\n      and\n        /* \"#utility.yul\":5776:5847   */\n      iszero\n      tag_255\n      jumpi\n        /* \"#utility.yul\":5827:5845   */\n      tag_255\n      tag_211\n      jump\t// in\n    tag_255:\n      pop\n        /* \"#utility.yul\":5867:5876   */\n      mul\n      swap1\n        /* \"#utility.yul\":5714:5882   */\n      jump\t// out\n        /* \"#utility.yul\":5887:6104   */\n    tag_163:\n        /* \"#utility.yul\":5927:5928   */\n      0x00\n        /* \"#utility.yul\":5953:5954   */\n      dup3\n        /* \"#utility.yul\":5943:6075   */\n      tag_257\n      jumpi\n        /* \"#utility.yul\":5997:6007   */\n      0x4e487b71\n        /* \"#utility.yul\":5992:5995   */\n      0xe0\n        /* \"#utility.yul\":5988:6008   */\n      shl\n        /* \"#utility.yul\":5985:5986   */\n      0x00\n        /* \"#utility.yul\":5978:6009   */\n      mstore\n        /* \"#utility.yul\":6032:6036   */\n      0x12\n        /* \"#utility.yul\":6029:6030   */\n      0x04\n        /* \"#utility.yul\":6022:6037   */\n      mstore\n        /* \"#utility.yul\":6060:6064   */\n      0x24\n        /* \"#utility.yul\":6057:6058   */\n      0x00\n        /* \"#utility.yul\":6050:6065   */\n      revert\n        /* \"#utility.yul\":5943:6075   */\n    tag_257:\n      pop\n        /* \"#utility.yul\":6089:6098   */\n      div\n      swap1\n        /* \"#utility.yul\":5887:6104   */\n      jump\t// out\n        /* \"#utility.yul\":6411:6688   */\n    tag_175:\n        /* \"#utility.yul\":6478:6484   */\n      0x00\n        /* \"#utility.yul\":6531:6533   */\n      0x20\n        /* \"#utility.yul\":6519:6528   */\n      dup3\n        /* \"#utility.yul\":6510:6517   */\n      dup5\n        /* \"#utility.yul\":6506:6529   */\n      sub\n        /* \"#utility.yul\":6502:6534   */\n      slt\n        /* \"#utility.yul\":6499:6551   */\n      iszero\n      tag_260\n      jumpi\n        /* \"#utility.yul\":6547:6548   */\n      0x00\n        /* \"#utility.yul\":6544:6545   */\n      dup1\n        /* \"#utility.yul\":6537:6549   */\n      revert\n        /* \"#utility.yul\":6499:6551   */\n    tag_260:\n        /* \"#utility.yul\":6579:6588   */\n      dup2\n        /* \"#utility.yul\":6573:6589   */\n      mload\n        /* \"#utility.yul\":6632:6637   */\n      dup1\n        /* \"#utility.yul\":6625:6638   */\n      iszero\n        /* \"#utility.yul\":6618:6639   */\n      iszero\n        /* \"#utility.yul\":6611:6616   */\n      dup2\n        /* \"#utility.yul\":6608:6640   */\n      eq\n        /* \"#utility.yul\":6598:6658   */\n      tag_151\n      jumpi\n        /* \"#utility.yul\":6654:6655   */\n      0x00\n        /* \"#utility.yul\":6651:6652   */\n      dup1\n        /* \"#utility.yul\":6644:6656   */\n      revert\n        /* \"#utility.yul\":7511:7769   */\n    tag_212:\n        /* \"#utility.yul\":7583:7584   */\n      0x00\n        /* \"#utility.yul\":7593:7706   */\n    tag_265:\n        /* \"#utility.yul\":7607:7613   */\n      dup4\n        /* \"#utility.yul\":7604:7605   */\n      dup2\n        /* \"#utility.yul\":7601:7614   */\n      lt\n        /* \"#utility.yul\":7593:7706   */\n      iszero\n      tag_267\n      jumpi\n        /* \"#utility.yul\":7683:7694   */\n      dup2\n      dup2\n      add\n        /* \"#utility.yul\":7677:7695   */\n      mload\n        /* \"#utility.yul\":7664:7675   */\n      dup4\n      dup3\n      add\n        /* \"#utility.yul\":7657:7696   */\n      mstore\n        /* \"#utility.yul\":7629:7631   */\n      0x20\n        /* \"#utility.yul\":7622:7632   */\n      add\n        /* \"#utility.yul\":7593:7706   */\n      jump(tag_265)\n    tag_267:\n        /* \"#utility.yul\":7724:7730   */\n      dup4\n        /* \"#utility.yul\":7721:7722   */\n      dup2\n        /* \"#utility.yul\":7718:7731   */\n      gt\n        /* \"#utility.yul\":7715:7763   */\n      iszero\n      tag_268\n      jumpi\n        /* \"#utility.yul\":7759:7760   */\n      0x00\n        /* \"#utility.yul\":7750:7756   */\n      dup5\n        /* \"#utility.yul\":7745:7748   */\n      dup5\n        /* \"#utility.yul\":7741:7757   */\n      add\n        /* \"#utility.yul\":7734:7761   */\n      mstore\n        /* \"#utility.yul\":7715:7763   */\n    tag_268:\n      pop\n        /* \"#utility.yul\":7511:7769   */\n      pop\n      pop\n      pop\n      jump\t// out\n        /* \"#utility.yul\":7774:8048   */\n    tag_187:\n        /* \"#utility.yul\":7903:7906   */\n      0x00\n        /* \"#utility.yul\":7941:7947   */\n      dup3\n        /* \"#utility.yul\":7935:7948   */\n      mload\n        /* \"#utility.yul\":7957:8010   */\n      tag_270\n        /* \"#utility.yul\":8003:8009   */\n      dup2\n        /* \"#utility.yul\":7998:8001   */\n      dup5\n        /* \"#utility.yul\":7991:7995   */\n      0x20\n        /* \"#utility.yul\":7983:7989   */\n      dup8\n        /* \"#utility.yul\":7979:7996   */\n      add\n        /* \"#utility.yul\":7957:8010   */\n      tag_212\n      jump\t// in\n    tag_270:\n        /* \"#utility.yul\":8026:8042   */\n      swap2\n      swap1\n      swap2\n      add\n      swap3\n        /* \"#utility.yul\":7774:8048   */\n      swap2\n      pop\n      pop\n      jump\t// out\n        /* \"#utility.yul\":8411:8794   */\n    tag_209:\n        /* \"#utility.yul\":8560:8562   */\n      0x20\n        /* \"#utility.yul\":8549:8558   */\n      dup2\n        /* \"#utility.yul\":8542:8563   */\n      mstore\n        /* \"#utility.yul\":8523:8527   */\n      0x00\n        /* \"#utility.yul\":8592:8598   */\n      dup3\n        /* \"#utility.yul\":8586:8599   */\n      mload\n        /* \"#utility.yul\":8635:8641   */\n      dup1\n        /* \"#utility.yul\":8630:8632   */\n      0x20\n        /* \"#utility.yul\":8619:8628   */\n      dup5\n        /* \"#utility.yul\":8615:8633   */\n      add\n        /* \"#utility.yul\":8608:8642   */\n      mstore\n        /* \"#utility.yul\":8651:8717   */\n      tag_273\n        /* \"#utility.yul\":8710:8716   */\n      dup2\n        /* \"#utility.yul\":8705:8707   */\n      0x40\n        /* \"#utility.yul\":8694:8703   */\n      dup6\n        /* \"#utility.yul\":8690:8708   */\n      add\n        /* \"#utility.yul\":8685:8687   */\n      0x20\n        /* \"#utility.yul\":8677:8683   */\n      dup8\n        /* \"#utility.yul\":8673:8688   */\n      add\n        /* \"#utility.yul\":8651:8717   */\n      tag_212\n      jump\t// in\n    tag_273:\n        /* \"#utility.yul\":8778:8780   */\n      0x1f\n        /* \"#utility.yul\":8757:8772   */\n      add\n      not(0x1f)\n        /* \"#utility.yul\":8753:8782   */\n      and\n        /* \"#utility.yul\":8738:8783   */\n      swap2\n      swap1\n      swap2\n      add\n        /* \"#utility.yul\":8785:8787   */\n      0x40\n        /* \"#utility.yul\":8734:8788   */\n      add\n      swap3\n        /* \"#utility.yul\":8411:8794   */\n      swap2\n      pop\n      pop\n      jump\t// out\n\n    auxdata: 0xa264697066735822122007dedef8f06c4beb394fff7bc35860b784faf343ab2efbabdee1cc25cd23ef2a64736f6c634300080d0033\n}\n",
    "bytecode": {
      "linkReferences": {},
      "object": "60c0604052670de0b6b3a764000060015534801561001c57600080fd5b5060405161117e38038061117e83398101604081905261003b9161006f565b60016000556001600160a01b0391821660a052166080526100a9565b6001600160a01b038116811461006c57600080fd5b50565b6000806040838503121561008257600080fd5b825161008d81610057565b602084015190925061009e81610057565b809150509250929050565b60805160a0516110956100e96000396000818160f3015281816104750152818161083201526109150152600081816101b7015261059301526110956000f3fe608060405234801561001057600080fd5b50600436106100a35760003560e01c80639168ae7211610076578063a694fc3a1161005b578063a694fc3a1461019f578063d1af0c7d146101b2578063f854a27f146101d957600080fd5b80639168ae721461012d578063940670451461017657600080fd5b80632e1a7d4d146100a8578063372500ab146100bd57806363c28db1146100c55780636588103b146100ee575b600080fd5b6100bb6100b6366004610e1c565b6101fa565b005b6100bb6104f6565b6100d86100d3366004610e4a565b6105c2565b6040516100e59190610e67565b60405180910390f35b6101157f000000000000000000000000000000000000000000000000000000000000000081565b6040516001600160a01b0390911681526020016100e5565b61015b61013b366004610e4a565b600260208190526000918252604090912080549181015460039091015483565b604080519384526020840192909252908201526060016100e5565b610115610184366004610e1c565b6003602052600090815260409020546001600160a01b031681565b6100bb6101ad366004610e1c565b6107bc565b6101157f000000000000000000000000000000000000000000000000000000000000000081565b6101ec6101e7366004610e4a565b610a33565b6040519081526020016100e5565b610202610a6b565b336000908152600260205260409020546102635760405162461bcd60e51b815260206004820152601960248201527f596f752068617665206e6f20746f6b656e73207374616b65640000000000000060448201526064015b60405180910390fd5b6000818152600360205260409020546001600160a01b031633146102c95760405162461bcd60e51b815260206004820152601960248201527f596f7520646f6e2774206f776e207468697320746f6b656e2100000000000000604482015260640161025a565b60006102d433610ac4565b336000908152600260205260408120600301805492935083929091906102fb908490610ed5565b9091555060009050805b336000908152600260205260409020600101548110156103c05733600090815260026020526040902060010180548591908390811061034657610346610eed565b9060005260206000209060020201600101541480156103a1575033600090815260026020526040812060010180548390811061038457610384610eed565b60009182526020909120600290910201546001600160a01b031614155b156103ae578091506103c0565b806103b881610f03565b915050610305565b503360009081526002602052604081206001018054839081106103e5576103e5610eed565b6000918252602080832060029283020180546001600160a01b0319166001600160a01b0395909516949094179093553382529091526040812080549161042a83610f1c565b90915550506000838152600360205260409081902080546001600160a01b0319169055516323b872dd60e01b8152306004820152336024820152604481018490526001600160a01b037f000000000000000000000000000000000000000000000000000000000000000016906323b872dd90606401600060405180830381600087803b1580156104b957600080fd5b505af11580156104cd573d6000803e3d6000fd5b505033600090815260026020819052604090912042910155506104f39250610b1d915050565b50565b33600081815260026020526040812060030154909161051490610ac4565b61051e9190610ed5565b9050600081116105705760405162461bcd60e51b815260206004820152601c60248201527f596f752068617665206e6f207265776172647320746f20636c61696d00000000604482015260640161025a565b33600081815260026020819052604082204291810191909155600301556104f3907f00000000000000000000000000000000000000000000000000000000000000006001600160a01b03169083610b24565b6001600160a01b03811660009081526002602052604090205460609015610778576001600160a01b03821660009081526002602052604081205467ffffffffffffffff81111561061457610614610f33565b60405190808252806020026020018201604052801561065957816020015b60408051808201909152600080825260208201528152602001906001900390816106325790505b5090506000805b6001600160a01b03851660009081526002602052604090206001015481101561076f576001600160a01b03851660009081526002602052604081206001018054839081106106b0576106b0610eed565b60009182526020909120600290910201546001600160a01b03161461075d576001600160a01b03851660009081526002602052604090206001018054829081106106fc576106fc610eed565b60009182526020918290206040805180820190915260029092020180546001600160a01b031682526001015491810191909152835184908490811061074357610743610eed565b6020026020010181905250818061075990610f03565b9250505b8061076781610f03565b915050610660565b50909392505050565b60408051600080825260208201909252906107b5565b604080518082019091526000808252602082015281526020019060019003908161078e5790505b5092915050565b6107c4610a6b565b33600090815260026020526040902054156108125760006107e433610ac4565b3360009081526002602052604081206003018054929350839290919061080b908490610ed5565b9091555050505b6040516331a9108f60e11b81526004810182905233906001600160a01b037f00000000000000000000000000000000000000000000000000000000000000001690636352211e90602401602060405180830381865afa158015610879573d6000803e3d6000fd5b505050506040513d601f19601f8201168201806040525081019061089d9190610f49565b6001600160a01b0316146108f35760405162461bcd60e51b815260206004820152601960248201527f596f7520646f6e2774206f776e207468697320746f6b656e2100000000000000604482015260640161025a565b6040516323b872dd60e01b8152336004820152306024820152604481018290527f00000000000000000000000000000000000000000000000000000000000000006001600160a01b0316906323b872dd90606401600060405180830381600087803b15801561096157600080fd5b505af1158015610975573d6000803e3d6000fd5b50506040805180820182523380825260208083018781526000838152600280845295812060018082018054808301825590845294832087519590980290970180546001600160a01b0319166001600160a01b03909516949094178455915192909501919091559083528054919450909250906109f083610f03565b909155505050600081815260036020908152604080832080546001600160a01b031916339081179091558352600291829052909120429101556104f36001600055565b6001600160a01b0381166000908152600260205260408120600301548190610a5a84610ac4565b610a649190610ed5565b9392505050565b600260005403610abd5760405162461bcd60e51b815260206004820152601f60248201527f5265656e7472616e637947756172643a207265656e7472616e742063616c6c00604482015260640161025a565b6002600055565b6001546001600160a01b0382166000908152600260208190526040822080549101549192610e1092909190610af99042610f66565b610b039190610f7d565b610b0d9190610f7d565b610b179190610f9c565b92915050565b6001600055565b604080516001600160a01b038416602482015260448082018490528251808303909101815260649091019091526020810180517bffffffffffffffffffffffffffffffffffffffffffffffffffffffff1663a9059cbb60e01b179052610b8b908490610b90565b505050565b6000610be5826040518060400160405280602081526020017f5361666545524332303a206c6f772d6c6576656c2063616c6c206661696c6564815250856001600160a01b0316610c759092919063ffffffff16565b805190915015610b8b5780806020019051810190610c039190610fbe565b610b8b5760405162461bcd60e51b815260206004820152602a60248201527f5361666545524332303a204552433230206f7065726174696f6e20646964206e60448201527f6f74207375636365656400000000000000000000000000000000000000000000606482015260840161025a565b6060610c848484600085610c8c565b949350505050565b606082471015610d045760405162461bcd60e51b815260206004820152602660248201527f416464726573733a20696e73756666696369656e742062616c616e636520666f60448201527f722063616c6c0000000000000000000000000000000000000000000000000000606482015260840161025a565b600080866001600160a01b03168587604051610d209190611010565b60006040518083038185875af1925050503d8060008114610d5d576040519150601f19603f3d011682016040523d82523d6000602084013e610d62565b606091505b5091509150610d7387838387610d7e565b979650505050505050565b60608315610ded578251600003610de6576001600160a01b0385163b610de65760405162461bcd60e51b815260206004820152601d60248201527f416464726573733a2063616c6c20746f206e6f6e2d636f6e7472616374000000604482015260640161025a565b5081610c84565b610c848383815115610e025781518083602001fd5b8060405162461bcd60e51b815260040161025a919061102c565b600060208284031215610e2e57600080fd5b5035919050565b6001600160a01b03811681146104f357600080fd5b600060208284031215610e5c57600080fd5b8135610a6481610e35565b602080825282518282018190526000919060409081850190868401855b82811015610eb257815180516001600160a01b03168552860151868501529284019290850190600101610e84565b5091979650505050505050565b634e487b7160e01b600052601160045260246000fd5b60008219821115610ee857610ee8610ebf565b500190565b634e487b7160e01b600052603260045260246000fd5b600060018201610f1557610f15610ebf565b5060010190565b600081610f2b57610f2b610ebf565b506000190190565b634e487b7160e01b600052604160045260246000fd5b600060208284031215610f5b57600080fd5b8151610a6481610e35565b600082821015610f7857610f78610ebf565b500390565b6000816000190483118215151615610f9757610f97610ebf565b500290565b600082610fb957634e487b7160e01b600052601260045260246000fd5b500490565b600060208284031215610fd057600080fd5b81518015158114610a6457600080fd5b60005b83811015610ffb578181015183820152602001610fe3565b8381111561100a576000848401525b50505050565b60008251611022818460208701610fe0565b9190910192915050565b602081526000825180602084015261104b816040850160208701610fe0565b601f01601f1916919091016040019291505056fea264697066735822122007dedef8f06c4beb394fff7bc35860b784faf343ab2efbabdee1cc25cd23ef2a64736f6c634300080d0033",
      "opcodes": "PUSH1 0xC0 PUSH1 0x40 MSTORE PUSH8 0xDE0B6B3A7640000 PUSH1 0x1 SSTORE CALLVALUE DUP1 ISZERO PUSH2 0x1C JUMPI PUSH1 0x0 DUP1 REVERT JUMPDEST POP PUSH1 0x40 MLOAD PUSH2 0x117E CODESIZE SUB DUP1 PUSH2 0x117E DUP4 CODECOPY DUP2 ADD PUSH1 0x40 DUP2 SWAP1 MSTORE PUSH2 0x3B SWAP2 PUSH2 0x6F JUMP JUMPDEST PUSH1 0x1 PUSH1 0x0 SSTORE PUSH1 0x1 PUSH1 0x1 PUSH1 0xA0 SHL SUB SWAP2 DUP3 AND PUSH1 0xA0 MSTORE AND PUSH1 0x80 MSTORE PUSH2 0xA9 JUMP JUMPDEST PUSH1 0x1 PUSH1 0x1 PUSH1 0xA0 SHL SUB DUP2 AND DUP2 EQ PUSH2 0x6C JUMPI PUSH1 0x0 DUP1 REVERT JUMPDEST POP JUMP JUMPDEST PUSH1 0x0 DUP1 PUSH1 0x40 DUP4 DUP6 SUB SLT ISZERO PUSH2 0x82 JUMPI PUSH1 0x0 DUP1 REVERT JUMPDEST DUP3 MLOAD PUSH2 0x8D DUP2 PUSH2 0x57 JUMP JUMPDEST PUSH1 0x20 DUP5 ADD MLOAD SWAP1 SWAP3 POP PUSH2 0x9E DUP2 PUSH2 0x57 JUMP JUMPDEST DUP1 SWAP2 POP POP SWAP3 POP SWAP3 SWAP1 POP JUMP JUMPDEST PUSH1 0x80 MLOAD PUSH1 0xA0 MLOAD PUSH2 0x1095 PUSH2 0xE9 PUSH1 0x0 CODECOPY PUSH1 0x0 DUP2 DUP2 PUSH1 0xF3 ADD MSTORE DUP2 DUP2 PUSH2 0x475 ADD MSTORE DUP2 DUP2 PUSH2 0x832 ADD MSTORE PUSH2 0x915 ADD MSTORE PUSH1 0x0 DUP2 DUP2 PUSH2 0x1B7 ADD MSTORE PUSH2 0x593 ADD MSTORE PUSH2 0x1095 PUSH1 0x0 RETURN INVALID PUSH1 0x80 PUSH1 0x40 MSTORE CALLVALUE DUP1 ISZERO PUSH2 0x10 JUMPI PUSH1 0x0 DUP1 REVERT JUMPDEST POP PUSH1 0x4 CALLDATASIZE LT PUSH2 0xA3 JUMPI PUSH1 0x0 CALLDATALOAD PUSH1 0xE0 SHR DUP1 PUSH4 0x9168AE72 GT PUSH2 0x76 JUMPI DUP1 PUSH4 0xA694FC3A GT PUSH2 0x5B JUMPI DUP1 PUSH4 0xA694FC3A EQ PUSH2 0x19F JUMPI DUP1 PUSH4 0xD1AF0C7D EQ PUSH2 0x1B2 JUMPI DUP1 PUSH4 0xF854A27F EQ PUSH2 0x1D9 JUMPI PUSH1 0x0 DUP1 REVERT JUMPDEST DUP1 PUSH4 0x9168AE72 EQ PUSH2 0x12D JUMPI DUP1 PUSH4 0x94067045 EQ PUSH2 0x176 JUMPI PUSH1 0x0 DUP1 REVERT JUMPDEST DUP1 PUSH4 0x2E1A7D4D EQ PUSH2 0xA8 JUMPI DUP1 PUSH4 0x372500AB EQ PUSH2 0xBD JUMPI DUP1 PUSH4 0x63C28DB1 EQ PUSH2 0xC5 JUMPI DUP1 PUSH4 0x6588103B EQ PUSH2 0xEE JUMPI JUMPDEST PUSH1 0x0 DUP1 REVERT JUMPDEST PUSH2 0xBB PUSH2 0xB6 CALLDATASIZE PUSH1 0x4 PUSH2 0xE1C JUMP JUMPDEST PUSH2 0x1FA JUMP JUMPDEST STOP JUMPDEST PUSH2 0xBB PUSH2 0x4F6 JUMP JUMPDEST PUSH2 0xD8 PUSH2 0xD3 CALLDATASIZE PUSH1 0x4 PUSH2 0xE4A JUMP JUMPDEST PUSH2 0x5C2 JUMP JUMPDEST PUSH1 0x40 MLOAD PUSH2 0xE5 SWAP2 SWAP1 PUSH2 0xE67 JUMP JUMPDEST PUSH1 0x40 MLOAD DUP1 SWAP2 SUB SWAP1 RETURN JUMPDEST PUSH2 0x115 PUSH32 0x0 DUP2 JUMP JUMPDEST PUSH1 0x40 MLOAD PUSH1 0x1 PUSH1 0x1 PUSH1 0xA0 SHL SUB SWAP1 SWAP2 AND DUP2 MSTORE PUSH1 0x20 ADD PUSH2 0xE5 JUMP JUMPDEST PUSH2 0x15B PUSH2 0x13B CALLDATASIZE PUSH1 0x4 PUSH2 0xE4A JUMP JUMPDEST PUSH1 0x2 PUSH1 0x20 DUP2 SWAP1 MSTORE PUSH1 0x0 SWAP2 DUP3 MSTORE PUSH1 0x40 SWAP1 SWAP2 KECCAK256 DUP1 SLOAD SWAP2 DUP2 ADD SLOAD PUSH1 0x3 SWAP1 SWAP2 ADD SLOAD DUP4 JUMP JUMPDEST PUSH1 0x40 DUP1 MLOAD SWAP4 DUP5 MSTORE PUSH1 0x20 DUP5 ADD SWAP3 SWAP1 SWAP3 MSTORE SWAP1 DUP3 ADD MSTORE PUSH1 0x60 ADD PUSH2 0xE5 JUMP JUMPDEST PUSH2 0x115 PUSH2 0x184 CALLDATASIZE PUSH1 0x4 PUSH2 0xE1C JUMP JUMPDEST PUSH1 0x3 PUSH1 0x20 MSTORE PUSH1 0x0 SWAP1 DUP2 MSTORE PUSH1 0x40 SWAP1 KECCAK256 SLOAD PUSH1 0x1 PUSH1 0x1 PUSH1 0xA0 SHL SUB AND DUP2 JUMP JUMPDEST PUSH2 0xBB PUSH2 0x1AD CALLDATASIZE PUSH1 0x4 PUSH2 0xE1C JUMP JUMPDEST PUSH2 0x7BC JUMP JUMPDEST PUSH2 0x115 PUSH32 0x0 DUP2 JUMP JUMPDEST PUSH2 0x1EC PUSH2 0x1E7 CALLDATASIZE PUSH1 0x4 PUSH2 0xE4A JUMP JUMPDEST PUSH2 0xA33 JUMP JUMPDEST PUSH1 0x40 MLOAD SWAP1 DUP2 MSTORE PUSH1 0x20 ADD PUSH2 0xE5 JUMP JUMPDEST PUSH2 0x202 PUSH2 0xA6B JUMP JUMPDEST CALLER PUSH1 0x0 SWAP1 DUP2 MSTORE PUSH1 0x2 PUSH1 0x20 MSTORE PUSH1 0x40 SWAP1 KECCAK256 SLOAD PUSH2 0x263 JUMPI PUSH1 0x40 MLOAD PUSH3 0x461BCD PUSH1 0xE5 SHL DUP2 MSTORE PUSH1 0x20 PUSH1 0x4 DUP3 ADD MSTORE PUSH1 0x19 PUSH1 0x24 DUP3 ADD MSTORE PUSH32 0x596F752068617665206E6F20746F6B656E73207374616B656400000000000000 PUSH1 0x44 DUP3 ADD MSTORE PUSH1 0x64 ADD JUMPDEST PUSH1 0x40 MLOAD DUP1 SWAP2 SUB SWAP1 REVERT JUMPDEST PUSH1 0x0 DUP2 DUP2 MSTORE PUSH1 0x3 PUSH1 0x20 MSTORE PUSH1 0x40 SWAP1 KECCAK256 SLOAD PUSH1 0x1 PUSH1 0x1 PUSH1 0xA0 SHL SUB AND CALLER EQ PUSH2 0x2C9 JUMPI PUSH1 0x40 MLOAD PUSH3 0x461BCD PUSH1 0xE5 SHL DUP2 MSTORE PUSH1 0x20 PUSH1 0x4 DUP3 ADD MSTORE PUSH1 0x19 PUSH1 0x24 DUP3 ADD MSTORE PUSH32 0x596F7520646F6E2774206F776E207468697320746F6B656E2100000000000000 PUSH1 0x44 DUP3 ADD MSTORE PUSH1 0x64 ADD PUSH2 0x25A JUMP JUMPDEST PUSH1 0x0 PUSH2 0x2D4 CALLER PUSH2 0xAC4 JUMP JUMPDEST CALLER PUSH1 0x0 SWAP1 DUP2 MSTORE PUSH1 0x2 PUSH1 0x20 MSTORE PUSH1 0x40 DUP2 KECCAK256 PUSH1 0x3 ADD DUP1 SLOAD SWAP3 SWAP4 POP DUP4 SWAP3 SWAP1 SWAP2 SWAP1 PUSH2 0x2FB SWAP1 DUP5 SWAP1 PUSH2 0xED5 JUMP JUMPDEST SWAP1 SWAP2 SSTORE POP PUSH1 0x0 SWAP1 POP DUP1 JUMPDEST CALLER PUSH1 0x0 SWAP1 DUP2 MSTORE PUSH1 0x2 PUSH1 0x20 MSTORE PUSH1 0x40 SWAP1 KECCAK256 PUSH1 0x1 ADD SLOAD DUP2 LT ISZERO PUSH2 0x3C0 JUMPI CALLER PUSH1 0x0 SWAP1 DUP2 MSTORE PUSH1 0x2 PUSH1 0x20 MSTORE PUSH1 0x40 SWAP1 KECCAK256 PUSH1 0x1 ADD DUP1 SLOAD DUP6 SWAP2 SWAP1 DUP4 SWAP1 DUP2 LT PUSH2 0x346 JUMPI PUSH2 0x346 PUSH2 0xEED JUMP JUMPDEST SWAP1 PUSH1 0x0 MSTORE PUSH1 0x20 PUSH1 0x0 KECCAK256 SWAP1 PUSH1 0x2 MUL ADD PUSH1 0x1 ADD SLOAD EQ DUP1 ISZERO PUSH2 0x3A1 JUMPI POP CALLER PUSH1 0x0 SWAP1 DUP2 MSTORE PUSH1 0x2 PUSH1 0x20 MSTORE PUSH1 0x40 DUP2 KECCAK256 PUSH1 0x1 ADD DUP1 SLOAD DUP4 SWAP1 DUP2 LT PUSH2 0x384 JUMPI PUSH2 0x384 PUSH2 0xEED JUMP JUMPDEST PUSH1 0x0 SWAP2 DUP3 MSTORE PUSH1 0x20 SWAP1 SWAP2 KECCAK256 PUSH1 0x2 SWAP1 SWAP2 MUL ADD SLOAD PUSH1 0x1 PUSH1 0x1 PUSH1 0xA0 SHL SUB AND EQ ISZERO JUMPDEST ISZERO PUSH2 0x3AE JUMPI DUP1 SWAP2 POP PUSH2 0x3C0 JUMP JUMPDEST DUP1 PUSH2 0x3B8 DUP2 PUSH2 0xF03 JUMP JUMPDEST SWAP2 POP POP PUSH2 0x305 JUMP JUMPDEST POP CALLER PUSH1 0x0 SWAP1 DUP2 MSTORE PUSH1 0x2 PUSH1 0x20 MSTORE PUSH1 0x40 DUP2 KECCAK256 PUSH1 0x1 ADD DUP1 SLOAD DUP4 SWAP1 DUP2 LT PUSH2 0x3E5 JUMPI PUSH2 0x3E5 PUSH2 0xEED JUMP JUMPDEST PUSH1 0x0 SWAP2 DUP3 MSTORE PUSH1 0x20 DUP1 DUP4 KECCAK256 PUSH1 0x2 SWAP3 DUP4 MUL ADD DUP1 SLOAD PUSH1 0x1 PUSH1 0x1 PUSH1 0xA0 SHL SUB NOT AND PUSH1 0x1 PUSH1 0x1 PUSH1 0xA0 SHL SUB SWAP6 SWAP1 SWAP6 AND SWAP5 SWAP1 SWAP5 OR SWAP1 SWAP4 SSTORE CALLER DUP3 MSTORE SWAP1 SWAP2 MSTORE PUSH1 0x40 DUP2 KECCAK256 DUP1 SLOAD SWAP2 PUSH2 0x42A DUP4 PUSH2 0xF1C JUMP JUMPDEST SWAP1 SWAP2 SSTORE POP POP PUSH1 0x0 DUP4 DUP2 MSTORE PUSH1 0x3 PUSH1 0x20 MSTORE PUSH1 0x40 SWAP1 DUP2 SWAP1 KECCAK256 DUP1 SLOAD PUSH1 0x1 PUSH1 0x1 PUSH1 0xA0 SHL SUB NOT AND SWAP1 SSTORE MLOAD PUSH4 0x23B872DD PUSH1 0xE0 SHL DUP2 MSTORE ADDRESS PUSH1 0x4 DUP3 ADD MSTORE CALLER PUSH1 0x24 DUP3 ADD MSTORE PUSH1 0x44 DUP2 ADD DUP5 SWAP1 MSTORE PUSH1 0x1 PUSH1 0x1 PUSH1 0xA0 SHL SUB PUSH32 0x0 AND SWAP1 PUSH4 0x23B872DD SWAP1 PUSH1 0x64 ADD PUSH1 0x0 PUSH1 0x40 MLOAD DUP1 DUP4 SUB DUP2 PUSH1 0x0 DUP8 DUP1 EXTCODESIZE ISZERO DUP1 ISZERO PUSH2 0x4B9 JUMPI PUSH1 0x0 DUP1 REVERT JUMPDEST POP GAS CALL ISZERO DUP1 ISZERO PUSH2 0x4CD JUMPI RETURNDATASIZE PUSH1 0x0 DUP1 RETURNDATACOPY RETURNDATASIZE PUSH1 0x0 REVERT JUMPDEST POP POP CALLER PUSH1 0x0 SWAP1 DUP2 MSTORE PUSH1 0x2 PUSH1 0x20 DUP2 SWAP1 MSTORE PUSH1 0x40 SWAP1 SWAP2 KECCAK256 TIMESTAMP SWAP2 ADD SSTORE POP PUSH2 0x4F3 SWAP3 POP PUSH2 0xB1D SWAP2 POP POP JUMP JUMPDEST POP JUMP JUMPDEST CALLER PUSH1 0x0 DUP2 DUP2 MSTORE PUSH1 0x2 PUSH1 0x20 MSTORE PUSH1 0x40 DUP2 KECCAK256 PUSH1 0x3 ADD SLOAD SWAP1 SWAP2 PUSH2 0x514 SWAP1 PUSH2 0xAC4 JUMP JUMPDEST PUSH2 0x51E SWAP2 SWAP1 PUSH2 0xED5 JUMP JUMPDEST SWAP1 POP PUSH1 0x0 DUP2 GT PUSH2 0x570 JUMPI PUSH1 0x40 MLOAD PUSH3 0x461BCD PUSH1 0xE5 SHL DUP2 MSTORE PUSH1 0x20 PUSH1 0x4 DUP3 ADD MSTORE PUSH1 0x1C PUSH1 0x24 DUP3 ADD MSTORE PUSH32 0x596F752068617665206E6F207265776172647320746F20636C61696D00000000 PUSH1 0x44 DUP3 ADD MSTORE PUSH1 0x64 ADD PUSH2 0x25A JUMP JUMPDEST CALLER PUSH1 0x0 DUP2 DUP2 MSTORE PUSH1 0x2 PUSH1 0x20 DUP2 SWAP1 MSTORE PUSH1 0x40 DUP3 KECCAK256 TIMESTAMP SWAP2 DUP2 ADD SWAP2 SWAP1 SWAP2 SSTORE PUSH1 0x3 ADD SSTORE PUSH2 0x4F3 SWAP1 PUSH32 0x0 PUSH1 0x1 PUSH1 0x1 PUSH1 0xA0 SHL SUB AND SWAP1 DUP4 PUSH2 0xB24 JUMP JUMPDEST PUSH1 0x1 PUSH1 0x1 PUSH1 0xA0 SHL SUB DUP2 AND PUSH1 0x0 SWAP1 DUP2 MSTORE PUSH1 0x2 PUSH1 0x20 MSTORE PUSH1 0x40 SWAP1 KECCAK256 SLOAD PUSH1 0x60 SWAP1 ISZERO PUSH2 0x778 JUMPI PUSH1 0x1 PUSH1 0x1 PUSH1 0xA0 SHL SUB DUP3 AND PUSH1 0x0 SWAP1 DUP2 MSTORE PUSH1 0x2 PUSH1 0x20 MSTORE PUSH1 0x40 DUP2 KECCAK256 SLOAD PUSH8 0xFFFFFFFFFFFFFFFF DUP2 GT ISZERO PUSH2 0x614 JUMPI PUSH2 0x614 PUSH2 0xF33 JUMP JUMPDEST PUSH1 0x40 MLOAD SWAP1 DUP1 DUP3 MSTORE DUP1 PUSH1 0x20 MUL PUSH1 0x20 ADD DUP3 ADD PUSH1 0x40 MSTORE DUP1 ISZERO PUSH2 0x659 JUMPI DUP2 PUSH1 0x20 ADD JUMPDEST PUSH1 0x40 DUP1 MLOAD DUP1 DUP3 ADD SWAP1 SWAP2 MSTORE PUSH1 0x0 DUP1 DUP3 MSTORE PUSH1 0x20 DUP3 ADD MSTORE DUP2 MSTORE PUSH1 0x20 ADD SWAP1 PUSH1 0x1 SWAP1 SUB SWAP1 DUP2 PUSH2 0x632 JUMPI SWAP1 POP JUMPDEST POP SWAP1 POP PUSH1 0x0 DUP1 JUMPDEST PUSH1 0x1 PUSH1 0x1 PUSH1 0xA0 SHL SUB DUP6 AND PUSH1 0x0 SWAP1 DUP2 MSTORE PUSH1 0x2 PUSH1 0x20 MSTORE PUSH1 0x40 SWAP1 KECCAK256 PUSH1 0x1 ADD SLOAD DUP2 LT ISZERO PUSH2 0x76F JUMPI PUSH1 0x1 PUSH1 0x1 PUSH1 0xA0 SHL SUB DUP6 AND PUSH1 0x0 SWAP1 DUP2 MSTORE PUSH1 0x2 PUSH1 0x20 MSTORE PUSH1 0x40 DUP2 KECCAK256 PUSH1 0x1 ADD DUP1 SLOAD DUP4 SWAP1 DUP2 LT PUSH2 0x6B0 JUMPI PUSH2 0x6B0 PUSH2 0xEED JUMP JUMPDEST PUSH1 0x0 SWAP2 DUP3 MSTORE PUSH1 0x20 SWAP1 SWAP2 KECCAK256 PUSH1 0x2 SWAP1 SWAP2 MUL ADD SLOAD PUSH1 0x1 PUSH1 0x1 PUSH1 0xA0 SHL SUB AND EQ PUSH2 0x75D JUMPI PUSH1 0x1 PUSH1 0x1 PUSH1 0xA0 SHL SUB DUP6 AND PUSH1 0x0 SWAP1 DUP2 MSTORE PUSH1 0x2 PUSH1 0x20 MSTORE PUSH1 0x40 SWAP1 KECCAK256 PUSH1 0x1 ADD DUP1 SLOAD DUP3 SWAP1 DUP2 LT PUSH2 0x6FC JUMPI PUSH2 0x6FC PUSH2 0xEED JUMP JUMPDEST PUSH1 0x0 SWAP2 DUP3 MSTORE PUSH1 0x20 SWAP2 DUP3 SWAP1 KECCAK256 PUSH1 0x40 DUP1 MLOAD DUP1 DUP3 ADD SWAP1 SWAP2 MSTORE PUSH1 0x2 SWAP1 SWAP3 MUL ADD DUP1 SLOAD PUSH1 0x1 PUSH1 0x1 PUSH1 0xA0 SHL SUB AND DUP3 MSTORE PUSH1 0x1 ADD SLOAD SWAP2 DUP2 ADD SWAP2 SWAP1 SWAP2 MSTORE DUP4 MLOAD DUP5 SWAP1 DUP5 SWAP1 DUP2 LT PUSH2 0x743 JUMPI PUSH2 0x743 PUSH2 0xEED JUMP JUMPDEST PUSH1 0x20 MUL PUSH1 0x20 ADD ADD DUP2 SWAP1 MSTORE POP DUP2 DUP1 PUSH2 0x759 SWAP1 PUSH2 0xF03 JUMP JUMPDEST SWAP3 POP POP JUMPDEST DUP1 PUSH2 0x767 DUP2 PUSH2 0xF03 JUMP JUMPDEST SWAP2 POP POP PUSH2 0x660 JUMP JUMPDEST POP SWAP1 SWAP4 SWAP3 POP POP POP JUMP JUMPDEST PUSH1 0x40 DUP1 MLOAD PUSH1 0x0 DUP1 DUP3 MSTORE PUSH1 0x20 DUP3 ADD SWAP1 SWAP3 MSTORE SWAP1 PUSH2 0x7B5 JUMP JUMPDEST PUSH1 0x40 DUP1 MLOAD DUP1 DUP3 ADD SWAP1 SWAP2 MSTORE PUSH1 0x0 DUP1 DUP3 MSTORE PUSH1 0x20 DUP3 ADD MSTORE DUP2 MSTORE PUSH1 0x20 ADD SWAP1 PUSH1 0x1 SWAP1 SUB SWAP1 DUP2 PUSH2 0x78E JUMPI SWAP1 POP JUMPDEST POP SWAP3 SWAP2 POP POP JUMP JUMPDEST PUSH2 0x7C4 PUSH2 0xA6B JUMP JUMPDEST CALLER PUSH1 0x0 SWAP1 DUP2 MSTORE PUSH1 0x2 PUSH1 0x20 MSTORE PUSH1 0x40 SWAP1 KECCAK256 SLOAD ISZERO PUSH2 0x812 JUMPI PUSH1 0x0 PUSH2 0x7E4 CALLER PUSH2 0xAC4 JUMP JUMPDEST CALLER PUSH1 0x0 SWAP1 DUP2 MSTORE PUSH1 0x2 PUSH1 0x20 MSTORE PUSH1 0x40 DUP2 KECCAK256 PUSH1 0x3 ADD DUP1 SLOAD SWAP3 SWAP4 POP DUP4 SWAP3 SWAP1 SWAP2 SWAP1 PUSH2 0x80B SWAP1 DUP5 SWAP1 PUSH2 0xED5 JUMP JUMPDEST SWAP1 SWAP2 SSTORE POP POP POP JUMPDEST PUSH1 0x40 MLOAD PUSH4 0x31A9108F PUSH1 0xE1 SHL DUP2 MSTORE PUSH1 0x4 DUP2 ADD DUP3 SWAP1 MSTORE CALLER SWAP1 PUSH1 0x1 PUSH1 0x1 PUSH1 0xA0 SHL SUB PUSH32 0x0 AND SWAP1 PUSH4 0x6352211E SWAP1 PUSH1 0x24 ADD PUSH1 0x20 PUSH1 0x40 MLOAD DUP1 DUP4 SUB DUP2 DUP7 GAS STATICCALL ISZERO DUP1 ISZERO PUSH2 0x879 JUMPI RETURNDATASIZE PUSH1 0x0 DUP1 RETURNDATACOPY RETURNDATASIZE PUSH1 0x0 REVERT JUMPDEST POP POP POP POP PUSH1 0x40 MLOAD RETURNDATASIZE PUSH1 0x1F NOT PUSH1 0x1F DUP3 ADD AND DUP3 ADD DUP1 PUSH1 0x40 MSTORE POP DUP2 ADD SWAP1 PUSH2 0x89D SWAP2 SWAP1 PUSH2 0xF49 JUMP JUMPDEST PUSH1 0x1 PUSH1 0x1 PUSH1 0xA0 SHL SUB AND EQ PUSH2 0x8F3 JUMPI PUSH1 0x40 MLOAD PUSH3 0x461BCD PUSH1 0xE5 SHL DUP2 MSTORE PUSH1 0x20 PUSH1 0x4 DUP3 ADD MSTORE PUSH1 0x19 PUSH1 0x24 DUP3 ADD MSTORE PUSH32 0x596F7520646F6E2774206F776E207468697320746F6B656E2100000000000000 PUSH1 0x44 DUP3 ADD MSTORE PUSH1 0x64 ADD PUSH2 0x25A JUMP JUMPDEST PUSH1 0x40 MLOAD PUSH4 0x23B872DD PUSH1 0xE0 SHL DUP2 MSTORE CALLER PUSH1 0x4 DUP3 ADD MSTORE ADDRESS PUSH1 0x24 DUP3 ADD MSTORE PUSH1 0x44 DUP2 ADD DUP3 SWAP1 MSTORE PUSH32 0x0 PUSH1 0x1 PUSH1 0x1 PUSH1 0xA0 SHL SUB AND SWAP1 PUSH4 0x23B872DD SWAP1 PUSH1 0x64 ADD PUSH1 0x0 PUSH1 0x40 MLOAD DUP1 DUP4 SUB DUP2 PUSH1 0x0 DUP8 DUP1 EXTCODESIZE ISZERO DUP1 ISZERO PUSH2 0x961 JUMPI PUSH1 0x0 DUP1 REVERT JUMPDEST POP GAS CALL ISZERO DUP1 ISZERO PUSH2 0x975 JUMPI RETURNDATASIZE PUSH1 0x0 DUP1 RETURNDATACOPY RETURNDATASIZE PUSH1 0x0 REVERT JUMPDEST POP POP PUSH1 0x40 DUP1 MLOAD DUP1 DUP3 ADD DUP3 MSTORE CALLER DUP1 DUP3 MSTORE PUSH1 0x20 DUP1 DUP4 ADD DUP8 DUP2 MSTORE PUSH1 0x0 DUP4 DUP2 MSTORE PUSH1 0x2 DUP1 DUP5 MSTORE SWAP6 DUP2 KECCAK256 PUSH1 0x1 DUP1 DUP3 ADD DUP1 SLOAD DUP1 DUP4 ADD DUP3 SSTORE SWAP1 DUP5 MSTORE SWAP5 DUP4 KECCAK256 DUP8 MLOAD SWAP6 SWAP1 SWAP9 MUL SWAP1 SWAP8 ADD DUP1 SLOAD PUSH1 0x1 PUSH1 0x1 PUSH1 0xA0 SHL SUB NOT AND PUSH1 0x1 PUSH1 0x1 PUSH1 0xA0 SHL SUB SWAP1 SWAP6 AND SWAP5 SWAP1 SWAP5 OR DUP5 SSTORE SWAP2 MLOAD SWAP3 SWAP1 SWAP6 ADD SWAP2 SWAP1 SWAP2 SSTORE SWAP1 DUP4 MSTORE DUP1 SLOAD SWAP2 SWAP5 POP SWAP1 SWAP3 POP SWAP1 PUSH2 0x9F0 DUP4 PUSH2 0xF03 JUMP JUMPDEST SWAP1 SWAP2 SSTORE POP POP POP PUSH1 0x0 DUP2 DUP2 MSTORE PUSH1 0x3 PUSH1 0x20 SWAP1 DUP2 MSTORE PUSH1 0x40 DUP1 DUP4 KECCAK256 DUP1 SLOAD PUSH1 0x1 PUSH1 0x1 PUSH1 0xA0 SHL SUB NOT AND CALLER SWAP1 DUP2 OR SWAP1 SWAP2 SSTORE DUP4 MSTORE PUSH1 0x2 SWAP2 DUP3 SWAP1 MSTORE SWAP1 SWAP2 KECCAK256 TIMESTAMP SWAP2 ADD SSTORE PUSH2 0x4F3 PUSH1 0x1 PUSH1 0x0 SSTORE JUMP JUMPDEST PUSH1 0x1 PUSH1 0x1 PUSH1 0xA0 SHL SUB DUP2 AND PUSH1 0x0 SWAP1 DUP2 MSTORE PUSH1 0x2 PUSH1 0x20 MSTORE PUSH1 0x40 DUP2 KECCAK256 PUSH1 0x3 ADD SLOAD DUP2 SWAP1 PUSH2 0xA5A DUP5 PUSH2 0xAC4 JUMP JUMPDEST PUSH2 0xA64 SWAP2 SWAP1 PUSH2 0xED5 JUMP JUMPDEST SWAP4 SWAP3 POP POP POP JUMP JUMPDEST PUSH1 0x2 PUSH1 0x0 SLOAD SUB PUSH2 0xABD JUMPI PUSH1 0x40 MLOAD PUSH3 0x461BCD PUSH1 0xE5 SHL DUP2 MSTORE PUSH1 0x20 PUSH1 0x4 DUP3 ADD MSTORE PUSH1 0x1F PUSH1 0x24 DUP3 ADD MSTORE PUSH32 0x5265656E7472616E637947756172643A207265656E7472616E742063616C6C00 PUSH1 0x44 DUP3 ADD MSTORE PUSH1 0x64 ADD PUSH2 0x25A JUMP JUMPDEST PUSH1 0x2 PUSH1 0x0 SSTORE JUMP JUMPDEST PUSH1 0x1 SLOAD PUSH1 0x1 PUSH1 0x1 PUSH1 0xA0 SHL SUB DUP3 AND PUSH1 0x0 SWAP1 DUP2 MSTORE PUSH1 0x2 PUSH1 0x20 DUP2 SWAP1 MSTORE PUSH1 0x40 DUP3 KECCAK256 DUP1 SLOAD SWAP2 ADD SLOAD SWAP2 SWAP3 PUSH2 0xE10 SWAP3 SWAP1 SWAP2 SWAP1 PUSH2 0xAF9 SWAP1 TIMESTAMP PUSH2 0xF66 JUMP JUMPDEST PUSH2 0xB03 SWAP2 SWAP1 PUSH2 0xF7D JUMP JUMPDEST PUSH2 0xB0D SWAP2 SWAP1 PUSH2 0xF7D JUMP JUMPDEST PUSH2 0xB17 SWAP2 SWAP1 PUSH2 0xF9C JUMP JUMPDEST SWAP3 SWAP2 POP POP JUMP JUMPDEST PUSH1 0x1 PUSH1 0x0 SSTORE JUMP JUMPDEST PUSH1 0x40 DUP1 MLOAD PUSH1 0x1 PUSH1 0x1 PUSH1 0xA0 SHL SUB DUP5 AND PUSH1 0x24 DUP3 ADD MSTORE PUSH1 0x44 DUP1 DUP3 ADD DUP5 SWAP1 MSTORE DUP3 MLOAD DUP1 DUP4 SUB SWAP1 SWAP2 ADD DUP2 MSTORE PUSH1 0x64 SWAP1 SWAP2 ADD SWAP1 SWAP2 MSTORE PUSH1 0x20 DUP2 ADD DUP1 MLOAD PUSH28 0xFFFFFFFFFFFFFFFFFFFFFFFFFFFFFFFFFFFFFFFFFFFFFFFFFFFFFFFF AND PUSH4 0xA9059CBB PUSH1 0xE0 SHL OR SWAP1 MSTORE PUSH2 0xB8B SWAP1 DUP5 SWAP1 PUSH2 0xB90 JUMP JUMPDEST POP POP POP JUMP JUMPDEST PUSH1 0x0 PUSH2 0xBE5 DUP3 PUSH1 0x40 MLOAD DUP1 PUSH1 0x40 ADD PUSH1 0x40 MSTORE DUP1 PUSH1 0x20 DUP2 MSTORE PUSH1 0x20 ADD PUSH32 0x5361666545524332303A206C6F772D6C6576656C2063616C6C206661696C6564 DUP2 MSTORE POP DUP6 PUSH1 0x1 PUSH1 0x1 PUSH1 0xA0 SHL SUB AND PUSH2 0xC75 SWAP1 SWAP3 SWAP2 SWAP1 PUSH4 0xFFFFFFFF AND JUMP JUMPDEST DUP1 MLOAD SWAP1 SWAP2 POP ISZERO PUSH2 0xB8B JUMPI DUP1 DUP1 PUSH1 0x20 ADD SWAP1 MLOAD DUP2 ADD SWAP1 PUSH2 0xC03 SWAP2 SWAP1 PUSH2 0xFBE JUMP JUMPDEST PUSH2 0xB8B JUMPI PUSH1 0x40 MLOAD PUSH3 0x461BCD PUSH1 0xE5 SHL DUP2 MSTORE PUSH1 0x20 PUSH1 0x4 DUP3 ADD MSTORE PUSH1 0x2A PUSH1 0x24 DUP3 ADD MSTORE PUSH32 0x5361666545524332303A204552433230206F7065726174696F6E20646964206E PUSH1 0x44 DUP3 ADD MSTORE PUSH32 0x6F74207375636365656400000000000000000000000000000000000000000000 PUSH1 0x64 DUP3 ADD MSTORE PUSH1 0x84 ADD PUSH2 0x25A JUMP JUMPDEST PUSH1 0x60 PUSH2 0xC84 DUP5 DUP5 PUSH1 0x0 DUP6 PUSH2 0xC8C JUMP JUMPDEST SWAP5 SWAP4 POP POP POP POP JUMP JUMPDEST PUSH1 0x60 DUP3 SELFBALANCE LT ISZERO PUSH2 0xD04 JUMPI PUSH1 0x40 MLOAD PUSH3 0x461BCD PUSH1 0xE5 SHL DUP2 MSTORE PUSH1 0x20 PUSH1 0x4 DUP3 ADD MSTORE PUSH1 0x26 PUSH1 0x24 DUP3 ADD MSTORE PUSH32 0x416464726573733A20696E73756666696369656E742062616C616E636520666F PUSH1 0x44 DUP3 ADD MSTORE PUSH32 0x722063616C6C0000000000000000000000000000000000000000000000000000 PUSH1 0x64 DUP3 ADD MSTORE PUSH1 0x84 ADD PUSH2 0x25A JUMP JUMPDEST PUSH1 0x0 DUP1 DUP7 PUSH1 0x1 PUSH1 0x1 PUSH1 0xA0 SHL SUB AND DUP6 DUP8 PUSH1 0x40 MLOAD PUSH2 0xD20 SWAP2 SWAP1 PUSH2 0x1010 JUMP JUMPDEST PUSH1 0x0 PUSH1 0x40 MLOAD DUP1 DUP4 SUB DUP2 DUP6 DUP8 GAS CALL SWAP3 POP POP POP RETURNDATASIZE DUP1 PUSH1 0x0 DUP2 EQ PUSH2 0xD5D JUMPI PUSH1 0x40 MLOAD SWAP2 POP PUSH1 0x1F NOT PUSH1 0x3F RETURNDATASIZE ADD AND DUP3 ADD PUSH1 0x40 MSTORE RETURNDATASIZE DUP3 MSTORE RETURNDATASIZE PUSH1 0x0 PUSH1 0x20 DUP5 ADD RETURNDATACOPY PUSH2 0xD62 JUMP JUMPDEST PUSH1 0x60 SWAP2 POP JUMPDEST POP SWAP2 POP SWAP2 POP PUSH2 0xD73 DUP8 DUP4 DUP4 DUP8 PUSH2 0xD7E JUMP JUMPDEST SWAP8 SWAP7 POP POP POP POP POP POP POP JUMP JUMPDEST PUSH1 0x60 DUP4 ISZERO PUSH2 0xDED JUMPI DUP3 MLOAD PUSH1 0x0 SUB PUSH2 0xDE6 JUMPI PUSH1 0x1 PUSH1 0x1 PUSH1 0xA0 SHL SUB DUP6 AND EXTCODESIZE PUSH2 0xDE6 JUMPI PUSH1 0x40 MLOAD PUSH3 0x461BCD PUSH1 0xE5 SHL DUP2 MSTORE PUSH1 0x20 PUSH1 0x4 DUP3 ADD MSTORE PUSH1 0x1D PUSH1 0x24 DUP3 ADD MSTORE PUSH32 0x416464726573733A2063616C6C20746F206E6F6E2D636F6E7472616374000000 PUSH1 0x44 DUP3 ADD MSTORE PUSH1 0x64 ADD PUSH2 0x25A JUMP JUMPDEST POP DUP2 PUSH2 0xC84 JUMP JUMPDEST PUSH2 0xC84 DUP4 DUP4 DUP2 MLOAD ISZERO PUSH2 0xE02 JUMPI DUP2 MLOAD DUP1 DUP4 PUSH1 0x20 ADD REVERT JUMPDEST DUP1 PUSH1 0x40 MLOAD PUSH3 0x461BCD PUSH1 0xE5 SHL DUP2 MSTORE PUSH1 0x4 ADD PUSH2 0x25A SWAP2 SWAP1 PUSH2 0x102C JUMP JUMPDEST PUSH1 0x0 PUSH1 0x20 DUP3 DUP5 SUB SLT ISZERO PUSH2 0xE2E JUMPI PUSH1 0x0 DUP1 REVERT JUMPDEST POP CALLDATALOAD SWAP2 SWAP1 POP JUMP JUMPDEST PUSH1 0x1 PUSH1 0x1 PUSH1 0xA0 SHL SUB DUP2 AND DUP2 EQ PUSH2 0x4F3 JUMPI PUSH1 0x0 DUP1 REVERT JUMPDEST PUSH1 0x0 PUSH1 0x20 DUP3 DUP5 SUB SLT ISZERO PUSH2 0xE5C JUMPI PUSH1 0x0 DUP1 REVERT JUMPDEST DUP2 CALLDATALOAD PUSH2 0xA64 DUP2 PUSH2 0xE35 JUMP JUMPDEST PUSH1 0x20 DUP1 DUP3 MSTORE DUP3 MLOAD DUP3 DUP3 ADD DUP2 SWAP1 MSTORE PUSH1 0x0 SWAP2 SWAP1 PUSH1 0x40 SWAP1 DUP2 DUP6 ADD SWAP1 DUP7 DUP5 ADD DUP6 JUMPDEST DUP3 DUP2 LT ISZERO PUSH2 0xEB2 JUMPI DUP2 MLOAD DUP1 MLOAD PUSH1 0x1 PUSH1 0x1 PUSH1 0xA0 SHL SUB AND DUP6 MSTORE DUP7 ADD MLOAD DUP7 DUP6 ADD MSTORE SWAP3 DUP5 ADD SWAP3 SWAP1 DUP6 ADD SWAP1 PUSH1 0x1 ADD PUSH2 0xE84 JUMP JUMPDEST POP SWAP2 SWAP8 SWAP7 POP POP POP POP POP POP POP JUMP JUMPDEST PUSH4 0x4E487B71 PUSH1 0xE0 SHL PUSH1 0x0 MSTORE PUSH1 0x11 PUSH1 0x4 MSTORE PUSH1 0x24 PUSH1 0x0 REVERT JUMPDEST PUSH1 0x0 DUP3 NOT DUP3 GT ISZERO PUSH2 0xEE8 JUMPI PUSH2 0xEE8 PUSH2 0xEBF JUMP JUMPDEST POP ADD SWAP1 JUMP JUMPDEST PUSH4 0x4E487B71 PUSH1 0xE0 SHL PUSH1 0x0 MSTORE PUSH1 0x32 PUSH1 0x4 MSTORE PUSH1 0x24 PUSH1 0x0 REVERT JUMPDEST PUSH1 0x0 PUSH1 0x1 DUP3 ADD PUSH2 0xF15 JUMPI PUSH2 0xF15 PUSH2 0xEBF JUMP JUMPDEST POP PUSH1 0x1 ADD SWAP1 JUMP JUMPDEST PUSH1 0x0 DUP2 PUSH2 0xF2B JUMPI PUSH2 0xF2B PUSH2 0xEBF JUMP JUMPDEST POP PUSH1 0x0 NOT ADD SWAP1 JUMP JUMPDEST PUSH4 0x4E487B71 PUSH1 0xE0 SHL PUSH1 0x0 MSTORE PUSH1 0x41 PUSH1 0x4 MSTORE PUSH1 0x24 PUSH1 0x0 REVERT JUMPDEST PUSH1 0x0 PUSH1 0x20 DUP3 DUP5 SUB SLT ISZERO PUSH2 0xF5B JUMPI PUSH1 0x0 DUP1 REVERT JUMPDEST DUP2 MLOAD PUSH2 0xA64 DUP2 PUSH2 0xE35 JUMP JUMPDEST PUSH1 0x0 DUP3 DUP3 LT ISZERO PUSH2 0xF78 JUMPI PUSH2 0xF78 PUSH2 0xEBF JUMP JUMPDEST POP SUB SWAP1 JUMP JUMPDEST PUSH1 0x0 DUP2 PUSH1 0x0 NOT DIV DUP4 GT DUP3 ISZERO ISZERO AND ISZERO PUSH2 0xF97 JUMPI PUSH2 0xF97 PUSH2 0xEBF JUMP JUMPDEST POP MUL SWAP1 JUMP JUMPDEST PUSH1 0x0 DUP3 PUSH2 0xFB9 JUMPI PUSH4 0x4E487B71 PUSH1 0xE0 SHL PUSH1 0x0 MSTORE PUSH1 0x12 PUSH1 0x4 MSTORE PUSH1 0x24 PUSH1 0x0 REVERT JUMPDEST POP DIV SWAP1 JUMP JUMPDEST PUSH1 0x0 PUSH1 0x20 DUP3 DUP5 SUB SLT ISZERO PUSH2 0xFD0 JUMPI PUSH1 0x0 DUP1 REVERT JUMPDEST DUP2 MLOAD DUP1 ISZERO ISZERO DUP2 EQ PUSH2 0xA64 JUMPI PUSH1 0x0 DUP1 REVERT JUMPDEST PUSH1 0x0 JUMPDEST DUP4 DUP2 LT ISZERO PUSH2 0xFFB JUMPI DUP2 DUP2 ADD MLOAD DUP4 DUP3 ADD MSTORE PUSH1 0x20 ADD PUSH2 0xFE3 JUMP JUMPDEST DUP4 DUP2 GT ISZERO PUSH2 0x100A JUMPI PUSH1 0x0 DUP5 DUP5 ADD MSTORE JUMPDEST POP POP POP POP JUMP JUMPDEST PUSH1 0x0 DUP3 MLOAD PUSH2 0x1022 DUP2 DUP5 PUSH1 0x20 DUP8 ADD PUSH2 0xFE0 JUMP JUMPDEST SWAP2 SWAP1 SWAP2 ADD SWAP3 SWAP2 POP POP JUMP JUMPDEST PUSH1 0x20 DUP2 MSTORE PUSH1 0x0 DUP3 MLOAD DUP1 PUSH1 0x20 DUP5 ADD MSTORE PUSH2 0x104B DUP2 PUSH1 0x40 DUP6 ADD PUSH1 0x20 DUP8 ADD PUSH2 0xFE0 JUMP JUMPDEST PUSH1 0x1F ADD PUSH1 0x1F NOT AND SWAP2 SWAP1 SWAP2 ADD PUSH1 0x40 ADD SWAP3 SWAP2 POP POP JUMP INVALID LOG2 PUSH5 0x6970667358 0x22 SLT KECCAK256 SMOD 0xDE 0xDE 0xF8 CREATE PUSH13 0x4BEB394FFF7BC35860B784FAF3 NUMBER 0xAB 0x2E 0xFB 0xAB 0xDE 0xE1 0xCC 0x25 0xCD 0x23 0xEF 0x2A PUSH5 0x736F6C6343 STOP ADDMOD 0xD STOP CALLER "
    },
    "gasEstimates": {
      "creation": {
        "codeDepositCost": "849000",
        "executionCost": "infinite",
        "totalCost": "infinite"
      },
      "external": {
        "availableRewards(address)": "infinite",
        "claimRewards()": "infinite",
        "getStakedTokens(address)": "infinite",
        "nftCollection()": "infinite",
        "rewardsToken()": "infinite",
        "stake(uint256)": "infinite",
        "stakerAddress(uint256)": "2522",
        "stakers(address)": "6811",
        "withdraw(uint256)": "infinite"
      },
      "internal": {
        "calculateRewards(address)": "infinite"
      }
    },
    "methodIdentifiers": {
      "availableRewards(address)": "f854a27f",
      "claimRewards()": "372500ab",
      "getStakedTokens(address)": "63c28db1",
      "nftCollection()": "6588103b",
      "rewardsToken()": "d1af0c7d",
      "stake(uint256)": "a694fc3a",
      "stakerAddress(uint256)": "94067045",
      "stakers(address)": "9168ae72",
      "withdraw(uint256)": "2e1a7d4d"
    }
  },
  "storageLayout": {
    "storage": [
      {
        "astId": 4010,
        "contract": "StakingContract4.sol:ERC721Staking_RED",
        "label": "_status",
        "offset": 0,
        "slot": "0",
        "type": "t_uint256"
      },
      {
        "astId": 2054,
        "contract": "StakingContract4.sol:ERC721Staking_RED",
        "label": "rewardsPerHour",
        "offset": 0,
        "slot": "1",
        "type": "t_uint256"
      },
      {
        "astId": 2059,
        "contract": "StakingContract4.sol:ERC721Staking_RED",
        "label": "stakers",
        "offset": 0,
        "slot": "2",
        "type": "t_mapping(t_address,t_struct(Staker)2051_storage)"
      },
      {
        "astId": 2063,
        "contract": "StakingContract4.sol:ERC721Staking_RED",
        "label": "stakerAddress",
        "offset": 0,
        "slot": "3",
        "type": "t_mapping(t_uint256,t_address)"
      }
    ],
    "types": {
      "t_address": {
        "encoding": "inplace",
        "label": "address",
        "numberOfBytes": "20"
      },
      "t_array(t_struct(StakedToken)2040_storage)dyn_storage": {
        "base": "t_struct(StakedToken)2040_storage",
        "encoding": "dynamic_array",
        "label": "struct ERC721Staking_RED.StakedToken[]",
        "numberOfBytes": "32"
      },
      "t_mapping(t_address,t_struct(Staker)2051_storage)": {
        "encoding": "mapping",
        "key": "t_address",
        "label": "mapping(address => struct ERC721Staking_RED.Staker)",
        "numberOfBytes": "32",
        "value": "t_struct(Staker)2051_storage"
      },
      "t_mapping(t_uint256,t_address)": {
        "encoding": "mapping",
        "key": "t_uint256",
        "label": "mapping(uint256 => address)",
        "numberOfBytes": "32",
        "value": "t_address"
      },
      "t_struct(StakedToken)2040_storage": {
        "encoding": "inplace",
        "label": "struct ERC721Staking_RED.StakedToken",
        "members": [
          {
            "astId": 2037,
            "contract": "StakingContract4.sol:ERC721Staking_RED",
            "label": "staker",
            "offset": 0,
            "slot": "0",
            "type": "t_address"
          },
          {
            "astId": 2039,
            "contract": "StakingContract4.sol:ERC721Staking_RED",
            "label": "tokenId",
            "offset": 0,
            "slot": "1",
            "type": "t_uint256"
          }
        ],
        "numberOfBytes": "64"
      },
      "t_struct(Staker)2051_storage": {
        "encoding": "inplace",
        "label": "struct ERC721Staking_RED.Staker",
        "members": [
          {
            "astId": 2042,
            "contract": "StakingContract4.sol:ERC721Staking_RED",
            "label": "amountStaked",
            "offset": 0,
            "slot": "0",
            "type": "t_uint256"
          },
          {
            "astId": 2046,
            "contract": "StakingContract4.sol:ERC721Staking_RED",
            "label": "stakedTokens",
            "offset": 0,
            "slot": "1",
            "type": "t_array(t_struct(StakedToken)2040_storage)dyn_storage"
          },
          {
            "astId": 2048,
            "contract": "StakingContract4.sol:ERC721Staking_RED",
            "label": "timeOfLastUpdate",
            "offset": 0,
            "slot": "2",
            "type": "t_uint256"
          },
          {
            "astId": 2050,
            "contract": "StakingContract4.sol:ERC721Staking_RED",
            "label": "unclaimedRewards",
            "offset": 0,
            "slot": "3",
            "type": "t_uint256"
          }
        ],
        "numberOfBytes": "128"
      },
      "t_uint256": {
        "encoding": "inplace",
        "label": "uint256",
        "numberOfBytes": "32"
      }
    }
  },
  "userdoc": {
    "kind": "user",
    "methods": {},
    "version": 1
  }
}